{
  "_format": "hh-sol-artifact-1",
  "contractName": "VideoMarketPlace",
  "sourceName": "contracts/VideoMarketplace.sol",
  "abi": [
    {
      "inputs": [
        {
          "internalType": "string",
          "name": "tokenName",
          "type": "string"
        },
        {
          "internalType": "string",
          "name": "tokenSymbol",
          "type": "string"
        },
        {
          "internalType": "uint256",
          "name": "_purchaseRatio",
          "type": "uint256"
        },
        {
          "internalType": "uint256",
          "name": "_marketFee",
          "type": "uint256"
        }
      ],
      "stateMutability": "nonpayable",
      "type": "constructor"
    },
    {
      "inputs": [],
      "name": "ListingDoesNotExist",
      "type": "error"
    },
    {
      "anonymous": false,
      "inputs": [
        {
          "indexed": true,
          "internalType": "address",
          "name": "seller",
          "type": "address"
        },
        {
          "indexed": true,
          "internalType": "uint256",
          "name": "nftId",
          "type": "uint256"
        },
        {
          "indexed": false,
          "internalType": "uint256",
          "name": "price",
          "type": "uint256"
        },
        {
          "indexed": false,
          "internalType": "string",
          "name": "uri",
          "type": "string"
        }
      ],
      "name": "NewListing",
      "type": "event"
    },
    {
      "anonymous": false,
      "inputs": [
        {
          "indexed": true,
          "internalType": "address",
          "name": "buyer",
          "type": "address"
        },
        {
          "indexed": true,
          "internalType": "address",
          "name": "seller",
          "type": "address"
        },
        {
          "indexed": false,
          "internalType": "uint256",
          "name": "nftId",
          "type": "uint256"
        },
        {
          "indexed": false,
          "internalType": "string",
          "name": "uri",
          "type": "string"
        }
      ],
      "name": "NewSale",
      "type": "event"
    },
    {
      "anonymous": false,
      "inputs": [
        {
          "indexed": true,
          "internalType": "address",
          "name": "previousOwner",
          "type": "address"
        },
        {
          "indexed": true,
          "internalType": "address",
          "name": "newOwner",
          "type": "address"
        }
      ],
      "name": "OwnershipTransferred",
      "type": "event"
    },
    {
      "inputs": [
        {
          "internalType": "uint256",
          "name": "nftId",
          "type": "uint256"
        }
      ],
      "name": "buyListing",
      "outputs": [
        {
          "internalType": "string",
          "name": "",
          "type": "string"
        }
      ],
      "stateMutability": "payable",
      "type": "function"
    },
    {
      "inputs": [
        {
          "internalType": "uint256",
          "name": "price",
          "type": "uint256"
        },
        {
          "internalType": "string",
          "name": "uri",
          "type": "string"
        }
      ],
      "name": "createListing",
      "outputs": [
        {
          "internalType": "uint256",
          "name": "",
          "type": "uint256"
        }
      ],
      "stateMutability": "nonpayable",
      "type": "function"
    },
    {
      "inputs": [
        {
          "internalType": "uint256",
          "name": "",
          "type": "uint256"
        }
      ],
      "name": "listings",
      "outputs": [
        {
          "internalType": "uint256",
          "name": "nftId",
          "type": "uint256"
        },
        {
          "internalType": "address",
          "name": "seller",
          "type": "address"
        },
        {
          "internalType": "uint256",
          "name": "price",
          "type": "uint256"
        },
        {
          "internalType": "string",
          "name": "uri",
          "type": "string"
        }
      ],
      "stateMutability": "view",
      "type": "function"
    },
    {
      "inputs": [
        {
          "internalType": "uint256",
          "name": "",
          "type": "uint256"
        }
      ],
      "name": "listingsMap",
      "outputs": [
        {
          "internalType": "uint256",
          "name": "nftId",
          "type": "uint256"
        },
        {
          "internalType": "address",
          "name": "seller",
          "type": "address"
        },
        {
          "internalType": "uint256",
          "name": "price",
          "type": "uint256"
        },
        {
          "internalType": "string",
          "name": "uri",
          "type": "string"
        }
      ],
      "stateMutability": "view",
      "type": "function"
    },
    {
      "inputs": [],
      "name": "marketFee",
      "outputs": [
        {
          "internalType": "uint256",
          "name": "",
          "type": "uint256"
        }
      ],
      "stateMutability": "view",
      "type": "function"
    },
    {
      "inputs": [],
      "name": "nftToken",
      "outputs": [
        {
          "internalType": "contract VideoList",
          "name": "",
          "type": "address"
        }
      ],
      "stateMutability": "view",
      "type": "function"
    },
    {
      "inputs": [],
      "name": "owner",
      "outputs": [
        {
          "internalType": "address",
          "name": "",
          "type": "address"
        }
      ],
      "stateMutability": "view",
      "type": "function"
    },
    {
      "inputs": [],
      "name": "paymentToken",
      "outputs": [
        {
          "internalType": "contract VideoMarketPlaceERC20Token",
          "name": "",
          "type": "address"
        }
      ],
      "stateMutability": "view",
      "type": "function"
    },
    {
      "inputs": [],
      "name": "purchaseRatio",
      "outputs": [
        {
          "internalType": "uint256",
          "name": "",
          "type": "uint256"
        }
      ],
      "stateMutability": "view",
      "type": "function"
    },
    {
      "inputs": [],
      "name": "purchaseTokens",
      "outputs": [],
      "stateMutability": "payable",
      "type": "function"
    },
    {
      "inputs": [],
      "name": "renounceOwnership",
      "outputs": [],
      "stateMutability": "nonpayable",
      "type": "function"
    },
    {
      "inputs": [
        {
          "internalType": "uint256",
          "name": "amount",
          "type": "uint256"
        }
      ],
      "name": "returnTokens",
      "outputs": [],
      "stateMutability": "nonpayable",
      "type": "function"
    },
    {
      "inputs": [
        {
          "internalType": "address",
          "name": "",
          "type": "address"
        }
      ],
      "name": "sales",
      "outputs": [
        {
          "internalType": "uint256",
          "name": "",
          "type": "uint256"
        }
      ],
      "stateMutability": "view",
      "type": "function"
    },
    {
      "inputs": [
        {
          "internalType": "address",
          "name": "newOwner",
          "type": "address"
        }
      ],
      "name": "transferOwnership",
      "outputs": [],
      "stateMutability": "nonpayable",
      "type": "function"
    }
  ],
  "bytecode": "0x60806040523480156200001157600080fd5b5060405162007a4d38038062007a4d83398181016040528101906200003791906200040c565b620000576200004b6200015660201b60201c565b6200015e60201b60201c565b8383604051620000679062000222565b6200007492919062000519565b604051809103906000f08015801562000091573d6000803e3d6000fd5b50600160006101000a81548173ffffffffffffffffffffffffffffffffffffffff021916908373ffffffffffffffffffffffffffffffffffffffff160217905550604051620000e09062000230565b604051809103906000f080158015620000fd573d6000803e3d6000fd5b50600260006101000a81548173ffffffffffffffffffffffffffffffffffffffff021916908373ffffffffffffffffffffffffffffffffffffffff16021790555081600381905550806004819055505050505062000554565b600033905090565b60008060009054906101000a900473ffffffffffffffffffffffffffffffffffffffff169050816000806101000a81548173ffffffffffffffffffffffffffffffffffffffff021916908373ffffffffffffffffffffffffffffffffffffffff1602179055508173ffffffffffffffffffffffffffffffffffffffff168173ffffffffffffffffffffffffffffffffffffffff167f8be0079c531659141344cd1fd0a4f28419497f9722a3daafe3b4186f6b6457e060405160405180910390a35050565b612c418062001eed83390190565b612f1f8062004b2e83390190565b6000604051905090565b600080fd5b600080fd5b600080fd5b600080fd5b6000601f19601f8301169050919050565b7f4e487b7100000000000000000000000000000000000000000000000000000000600052604160045260246000fd5b620002a7826200025c565b810181811067ffffffffffffffff82111715620002c957620002c86200026d565b5b80604052505050565b6000620002de6200023e565b9050620002ec82826200029c565b919050565b600067ffffffffffffffff8211156200030f576200030e6200026d565b5b6200031a826200025c565b9050602081019050919050565b60005b83811015620003475780820151818401526020810190506200032a565b60008484015250505050565b60006200036a6200036484620002f1565b620002d2565b90508281526020810184848401111562000389576200038862000257565b5b6200039684828562000327565b509392505050565b600082601f830112620003b657620003b562000252565b5b8151620003c884826020860162000353565b91505092915050565b6000819050919050565b620003e681620003d1565b8114620003f257600080fd5b50565b6000815190506200040681620003db565b92915050565b6000806000806080858703121562000429576200042862000248565b5b600085015167ffffffffffffffff8111156200044a57620004496200024d565b5b62000458878288016200039e565b945050602085015167ffffffffffffffff8111156200047c576200047b6200024d565b5b6200048a878288016200039e565b93505060406200049d87828801620003f5565b9250506060620004b087828801620003f5565b91505092959194509250565b600081519050919050565b600082825260208201905092915050565b6000620004e582620004bc565b620004f18185620004c7565b93506200050381856020860162000327565b6200050e816200025c565b840191505092915050565b60006040820190508181036000830152620005358185620004d8565b905081810360208301526200054b8184620004d8565b90509392505050565b61198980620005646000396000f3fe6080604052600436106100dd5760003560e01c8063715018a61161007f578063c6b9f06a11610059578063c6b9f06a14610285578063d06fcba8146102c2578063de74e57b146102ed578063f2fde38b1461032d576100dd565b8063715018a6146102185780638da5cb5b1461022f57806395cadc471461025a576100dd565b80633290ce29116100bb5780633290ce291461017557806335bd5d681461017f5780633ae1786f146101bf5780634884f459146101e8576100dd565b80630ccf2156146100e25780632721072d1461010d5780633013ce291461014a575b600080fd5b3480156100ee57600080fd5b506100f7610356565b6040516101049190610efe565b60405180910390f35b34801561011957600080fd5b50610134600480360381019061012f9190610fb4565b61035c565b6040516101419190610efe565b60405180910390f35b34801561015657600080fd5b5061015f61067c565b60405161016c9190611093565b60405180910390f35b61017d6106a2565b005b34801561018b57600080fd5b506101a660048036038101906101a191906110ae565b610740565b6040516101b6949392919061118c565b60405180910390f35b3480156101cb57600080fd5b506101e660048036038101906101e191906110ae565b610818565b005b61020260048036038101906101fd91906110ae565b6108fe565b60405161020f91906111d8565b60405180910390f35b34801561022457600080fd5b5061022d610baf565b005b34801561023b57600080fd5b50610244610bc3565b60405161025191906111fa565b60405180910390f35b34801561026657600080fd5b5061026f610bec565b60405161027c9190610efe565b60405180910390f35b34801561029157600080fd5b506102ac60048036038101906102a79190611241565b610bf2565b6040516102b99190610efe565b60405180910390f35b3480156102ce57600080fd5b506102d7610c0a565b6040516102e4919061128f565b60405180910390f35b3480156102f957600080fd5b50610314600480360381019061030f91906110ae565b610c30565b604051610324949392919061118c565b60405180910390f35b34801561033957600080fd5b50610354600480360381019061034f9190611241565b610d18565b005b60045481565b600080600260009054906101000a900473ffffffffffffffffffffffffffffffffffffffff1673ffffffffffffffffffffffffffffffffffffffff166326fb76c23386866040518463ffffffff1660e01b81526004016103be939291906112e6565b6020604051808303816000875af11580156103dd573d6000803e3d6000fd5b505050506040513d601f19601f82011682018060405250810190610401919061132d565b905060405180608001604052808281526020013373ffffffffffffffffffffffffffffffffffffffff16815260200186815260200185858080601f016020809104026020016040519081016040528093929190818152602001838380828437600081840152601f19601f82011690508083019250505050505050815250600660008381526020019081526020016000206000820151816000015560208201518160010160006101000a81548173ffffffffffffffffffffffffffffffffffffffff021916908373ffffffffffffffffffffffffffffffffffffffff160217905550604082015181600201556060820151816003019081610501919061158b565b50905050600560405180608001604052808381526020013373ffffffffffffffffffffffffffffffffffffffff16815260200187815260200186868080601f016020809104026020016040519081016040528093929190818152602001838380828437600081840152601f19601f8201169050808301925050505050505081525090806001815401808255809150506001900390600052602060002090600402016000909190919091506000820151816000015560208201518160010160006101000a81548173ffffffffffffffffffffffffffffffffffffffff021916908373ffffffffffffffffffffffffffffffffffffffff16021790555060408201518160020155606082015181600301908161061b919061158b565b505050803373ffffffffffffffffffffffffffffffffffffffff167faf1ce84d520b2384ef82512fc33c8f6a71d0c4b27984cf1eaeaf49f22501d8168787876040516106699392919061165d565b60405180910390a3809150509392505050565b600160009054906101000a900473ffffffffffffffffffffffffffffffffffffffff1681565b600160009054906101000a900473ffffffffffffffffffffffffffffffffffffffff1673ffffffffffffffffffffffffffffffffffffffff166340c10f1933600354346106ef91906116be565b6040518363ffffffff1660e01b815260040161070c929190611700565b600060405180830381600087803b15801561072657600080fd5b505af115801561073a573d6000803e3d6000fd5b50505050565b60066020528060005260406000206000915090508060000154908060010160009054906101000a900473ffffffffffffffffffffffffffffffffffffffff1690806002015490806003018054610795906113b8565b80601f01602080910402602001604051908101604052809291908181526020018280546107c1906113b8565b801561080e5780601f106107e35761010080835404028352916020019161080e565b820191906000526020600020905b8154815290600101906020018083116107f157829003601f168201915b5050505050905084565b600160009054906101000a900473ffffffffffffffffffffffffffffffffffffffff1673ffffffffffffffffffffffffffffffffffffffff166379cc679033836040518363ffffffff1660e01b8152600401610875929190611700565b600060405180830381600087803b15801561088f57600080fd5b505af11580156108a3573d6000803e3d6000fd5b505050503373ffffffffffffffffffffffffffffffffffffffff166108fc600354836108cf9190611758565b9081150290604051600060405180830381858888f193505050501580156108fa573d6000803e3d6000fd5b5050565b6060600060066000848152602001908152602001600020604051806080016040529081600082015481526020016001820160009054906101000a900473ffffffffffffffffffffffffffffffffffffffff1673ffffffffffffffffffffffffffffffffffffffff1673ffffffffffffffffffffffffffffffffffffffff1681526020016002820154815260200160038201805461099a906113b8565b80601f01602080910402602001604051908101604052809291908181526020018280546109c6906113b8565b8015610a135780601f106109e857610100808354040283529160200191610a13565b820191906000526020600020905b8154815290600101906020018083116109f657829003601f168201915b5050505050815250509050600073ffffffffffffffffffffffffffffffffffffffff16816020015173ffffffffffffffffffffffffffffffffffffffff1603610a88576040517f6b559eca00000000000000000000000000000000000000000000000000000000815260040160405180910390fd5b600160009054906101000a900473ffffffffffffffffffffffffffffffffffffffff1673ffffffffffffffffffffffffffffffffffffffff166323b872dd338360200151346040518463ffffffff1660e01b8152600401610aeb93929190611789565b6020604051808303816000875af1158015610b0a573d6000803e3d6000fd5b505050506040513d601f19601f82011682018060405250810190610b2e91906117f8565b50806020015173ffffffffffffffffffffffffffffffffffffffff163373ffffffffffffffffffffffffffffffffffffffff167f2e93c6e8b2cf2e29d13d89f416fb6c604559777fa2459a04f2c32cb54f38bfad83600001518460600151604051610b9a929190611825565b60405180910390a38060600151915050919050565b610bb7610d9b565b610bc16000610e19565b565b60008060009054906101000a900473ffffffffffffffffffffffffffffffffffffffff16905090565b60035481565b60076020528060005260406000206000915090505481565b600260009054906101000a900473ffffffffffffffffffffffffffffffffffffffff1681565b60058181548110610c4057600080fd5b90600052602060002090600402016000915090508060000154908060010160009054906101000a900473ffffffffffffffffffffffffffffffffffffffff1690806002015490806003018054610c95906113b8565b80601f0160208091040260200160405190810160405280929190818152602001828054610cc1906113b8565b8015610d0e5780601f10610ce357610100808354040283529160200191610d0e565b820191906000526020600020905b815481529060010190602001808311610cf157829003601f168201915b5050505050905084565b610d20610d9b565b600073ffffffffffffffffffffffffffffffffffffffff168173ffffffffffffffffffffffffffffffffffffffff1603610d8f576040517f08c379a0000000000000000000000000000000000000000000000000000000008152600401610d86906118c7565b60405180910390fd5b610d9881610e19565b50565b610da3610edd565b73ffffffffffffffffffffffffffffffffffffffff16610dc1610bc3565b73ffffffffffffffffffffffffffffffffffffffff1614610e17576040517f08c379a0000000000000000000000000000000000000000000000000000000008152600401610e0e90611933565b60405180910390fd5b565b60008060009054906101000a900473ffffffffffffffffffffffffffffffffffffffff169050816000806101000a81548173ffffffffffffffffffffffffffffffffffffffff021916908373ffffffffffffffffffffffffffffffffffffffff1602179055508173ffffffffffffffffffffffffffffffffffffffff168173ffffffffffffffffffffffffffffffffffffffff167f8be0079c531659141344cd1fd0a4f28419497f9722a3daafe3b4186f6b6457e060405160405180910390a35050565b600033905090565b6000819050919050565b610ef881610ee5565b82525050565b6000602082019050610f136000830184610eef565b92915050565b600080fd5b600080fd5b610f2c81610ee5565b8114610f3757600080fd5b50565b600081359050610f4981610f23565b92915050565b600080fd5b600080fd5b600080fd5b60008083601f840112610f7457610f73610f4f565b5b8235905067ffffffffffffffff811115610f9157610f90610f54565b5b602083019150836001820283011115610fad57610fac610f59565b5b9250929050565b600080600060408486031215610fcd57610fcc610f19565b5b6000610fdb86828701610f3a565b935050602084013567ffffffffffffffff811115610ffc57610ffb610f1e565b5b61100886828701610f5e565b92509250509250925092565b600073ffffffffffffffffffffffffffffffffffffffff82169050919050565b6000819050919050565b600061105961105461104f84611014565b611034565b611014565b9050919050565b600061106b8261103e565b9050919050565b600061107d82611060565b9050919050565b61108d81611072565b82525050565b60006020820190506110a86000830184611084565b92915050565b6000602082840312156110c4576110c3610f19565b5b60006110d284828501610f3a565b91505092915050565b60006110e682611014565b9050919050565b6110f6816110db565b82525050565b600081519050919050565b600082825260208201905092915050565b60005b8381101561113657808201518184015260208101905061111b565b60008484015250505050565b6000601f19601f8301169050919050565b600061115e826110fc565b6111688185611107565b9350611178818560208601611118565b61118181611142565b840191505092915050565b60006080820190506111a16000830187610eef565b6111ae60208301866110ed565b6111bb6040830185610eef565b81810360608301526111cd8184611153565b905095945050505050565b600060208201905081810360008301526111f28184611153565b905092915050565b600060208201905061120f60008301846110ed565b92915050565b61121e816110db565b811461122957600080fd5b50565b60008135905061123b81611215565b92915050565b60006020828403121561125757611256610f19565b5b60006112658482850161122c565b91505092915050565b600061127982611060565b9050919050565b6112898161126e565b82525050565b60006020820190506112a46000830184611280565b92915050565b82818337600083830152505050565b60006112c58385611107565b93506112d28385846112aa565b6112db83611142565b840190509392505050565b60006040820190506112fb60008301866110ed565b818103602083015261130e8184866112b9565b9050949350505050565b60008151905061132781610f23565b92915050565b60006020828403121561134357611342610f19565b5b600061135184828501611318565b91505092915050565b7f4e487b7100000000000000000000000000000000000000000000000000000000600052604160045260246000fd5b7f4e487b7100000000000000000000000000000000000000000000000000000000600052602260045260246000fd5b600060028204905060018216806113d057607f821691505b6020821081036113e3576113e2611389565b5b50919050565b60008190508160005260206000209050919050565b60006020601f8301049050919050565b600082821b905092915050565b60006008830261144b7fffffffffffffffffffffffffffffffffffffffffffffffffffffffffffffffff8261140e565b611455868361140e565b95508019841693508086168417925050509392505050565b600061148861148361147e84610ee5565b611034565b610ee5565b9050919050565b6000819050919050565b6114a28361146d565b6114b66114ae8261148f565b84845461141b565b825550505050565b600090565b6114cb6114be565b6114d6818484611499565b505050565b5b818110156114fa576114ef6000826114c3565b6001810190506114dc565b5050565b601f82111561153f57611510816113e9565b611519846113fe565b81016020851015611528578190505b61153c611534856113fe565b8301826114db565b50505b505050565b600082821c905092915050565b600061156260001984600802611544565b1980831691505092915050565b600061157b8383611551565b9150826002028217905092915050565b611594826110fc565b67ffffffffffffffff8111156115ad576115ac61135a565b5b6115b782546113b8565b6115c28282856114fe565b600060209050601f8311600181146115f557600084156115e3578287015190505b6115ed858261156f565b865550611655565b601f198416611603866113e9565b60005b8281101561162b57848901518255600182019150602085019450602081019050611606565b868310156116485784890151611644601f891682611551565b8355505b6001600288020188555050505b505050505050565b60006040820190506116726000830186610eef565b81810360208301526116858184866112b9565b9050949350505050565b7f4e487b7100000000000000000000000000000000000000000000000000000000600052601160045260246000fd5b60006116c982610ee5565b91506116d483610ee5565b92508282026116e281610ee5565b915082820484148315176116f9576116f861168f565b5b5092915050565b600060408201905061171560008301856110ed565b6117226020830184610eef565b9392505050565b7f4e487b7100000000000000000000000000000000000000000000000000000000600052601260045260246000fd5b600061176382610ee5565b915061176e83610ee5565b92508261177e5761177d611729565b5b828204905092915050565b600060608201905061179e60008301866110ed565b6117ab60208301856110ed565b6117b86040830184610eef565b949350505050565b60008115159050919050565b6117d5816117c0565b81146117e057600080fd5b50565b6000815190506117f2816117cc565b92915050565b60006020828403121561180e5761180d610f19565b5b600061181c848285016117e3565b91505092915050565b600060408201905061183a6000830185610eef565b818103602083015261184c8184611153565b90509392505050565b7f4f776e61626c653a206e6577206f776e657220697320746865207a65726f206160008201527f6464726573730000000000000000000000000000000000000000000000000000602082015250565b60006118b1602683611107565b91506118bc82611855565b604082019050919050565b600060208201905081810360008301526118e0816118a4565b9050919050565b7f4f776e61626c653a2063616c6c6572206973206e6f7420746865206f776e6572600082015250565b600061191d602083611107565b9150611928826118e7565b602082019050919050565b6000602082019050818103600083015261194c81611910565b905091905056fea2646970667358221220b6c0f7127db93286a4b3262678914c956fa2e14270950d09489d56ca8cc0be2364736f6c6343000811003360806040523480156200001157600080fd5b5060405162002c4138038062002c418339818101604052810190620000379190620003a6565b818181600390816200004a919062000676565b5080600490816200005c919062000676565b505050620000746000801b33620000ae60201b60201c565b620000a67f9f2df0fed2c77648de5860a4cc508cd0818c85b8b8a1ab4ceeef8d981c8956a633620000ae60201b60201c565b50506200075d565b620000c08282620001a060201b60201c565b6200019c5760016005600084815260200190815260200160002060000160008373ffffffffffffffffffffffffffffffffffffffff1673ffffffffffffffffffffffffffffffffffffffff16815260200190815260200160002060006101000a81548160ff021916908315150217905550620001416200020b60201b60201c565b73ffffffffffffffffffffffffffffffffffffffff168173ffffffffffffffffffffffffffffffffffffffff16837f2f8788117e7eff1d82e926ec794901d17c78024a50270940304540a733656f0d60405160405180910390a45b5050565b60006005600084815260200190815260200160002060000160008373ffffffffffffffffffffffffffffffffffffffff1673ffffffffffffffffffffffffffffffffffffffff16815260200190815260200160002060009054906101000a900460ff16905092915050565b600033905090565b6000604051905090565b600080fd5b600080fd5b600080fd5b600080fd5b6000601f19601f8301169050919050565b7f4e487b7100000000000000000000000000000000000000000000000000000000600052604160045260246000fd5b6200027c8262000231565b810181811067ffffffffffffffff821117156200029e576200029d62000242565b5b80604052505050565b6000620002b362000213565b9050620002c1828262000271565b919050565b600067ffffffffffffffff821115620002e457620002e362000242565b5b620002ef8262000231565b9050602081019050919050565b60005b838110156200031c578082015181840152602081019050620002ff565b60008484015250505050565b60006200033f6200033984620002c6565b620002a7565b9050828152602081018484840111156200035e576200035d6200022c565b5b6200036b848285620002fc565b509392505050565b600082601f8301126200038b576200038a62000227565b5b81516200039d84826020860162000328565b91505092915050565b60008060408385031215620003c057620003bf6200021d565b5b600083015167ffffffffffffffff811115620003e157620003e062000222565b5b620003ef8582860162000373565b925050602083015167ffffffffffffffff81111562000413576200041262000222565b5b620004218582860162000373565b9150509250929050565b600081519050919050565b7f4e487b7100000000000000000000000000000000000000000000000000000000600052602260045260246000fd5b600060028204905060018216806200047e57607f821691505b60208210810362000494576200049362000436565b5b50919050565b60008190508160005260206000209050919050565b60006020601f8301049050919050565b600082821b905092915050565b600060088302620004fe7fffffffffffffffffffffffffffffffffffffffffffffffffffffffffffffffff82620004bf565b6200050a8683620004bf565b95508019841693508086168417925050509392505050565b6000819050919050565b6000819050919050565b600062000557620005516200054b8462000522565b6200052c565b62000522565b9050919050565b6000819050919050565b620005738362000536565b6200058b62000582826200055e565b848454620004cc565b825550505050565b600090565b620005a262000593565b620005af81848462000568565b505050565b5b81811015620005d757620005cb60008262000598565b600181019050620005b5565b5050565b601f8211156200062657620005f0816200049a565b620005fb84620004af565b810160208510156200060b578190505b620006236200061a85620004af565b830182620005b4565b50505b505050565b600082821c905092915050565b60006200064b600019846008026200062b565b1980831691505092915050565b600062000666838362000638565b9150826002028217905092915050565b62000681826200042b565b67ffffffffffffffff8111156200069d576200069c62000242565b5b620006a9825462000465565b620006b6828285620005db565b600060209050601f831160018114620006ee5760008415620006d9578287015190505b620006e5858262000658565b86555062000755565b601f198416620006fe866200049a565b60005b82811015620007285784890151825560018201915060208501945060208101905062000701565b8683101562000748578489015162000744601f89168262000638565b8355505b6001600288020188555050505b505050505050565b6124d4806200076d6000396000f3fe608060405234801561001057600080fd5b50600436106101425760003560e01c806342966c68116100b8578063a217fddf1161007c578063a217fddf1461039b578063a457c2d7146103b9578063a9059cbb146103e9578063d539139314610419578063d547741f14610437578063dd62ed3e1461045357610142565b806342966c68146102e557806370a082311461030157806379cc67901461033157806391d148541461034d57806395d89b411461037d57610142565b8063248a9ca31161010a578063248a9ca3146102135780632f2ff15d14610243578063313ce5671461025f57806336568abe1461027d578063395093511461029957806340c10f19146102c957610142565b806301ffc9a71461014757806306fdde0314610177578063095ea7b31461019557806318160ddd146101c557806323b872dd146101e3575b600080fd5b610161600480360381019061015c919061179a565b610483565b60405161016e91906117e2565b60405180910390f35b61017f6104fd565b60405161018c919061188d565b60405180910390f35b6101af60048036038101906101aa9190611943565b61058f565b6040516101bc91906117e2565b60405180910390f35b6101cd6105b2565b6040516101da9190611992565b60405180910390f35b6101fd60048036038101906101f891906119ad565b6105bc565b60405161020a91906117e2565b60405180910390f35b61022d60048036038101906102289190611a36565b6105eb565b60405161023a9190611a72565b60405180910390f35b61025d60048036038101906102589190611a8d565b61060b565b005b61026761062c565b6040516102749190611ae9565b60405180910390f35b61029760048036038101906102929190611a8d565b610635565b005b6102b360048036038101906102ae9190611943565b6106b8565b6040516102c091906117e2565b60405180910390f35b6102e360048036038101906102de9190611943565b6106ef565b005b6102ff60048036038101906102fa9190611b04565b610728565b005b61031b60048036038101906103169190611b31565b61073c565b6040516103289190611992565b60405180910390f35b61034b60048036038101906103469190611943565b610784565b005b61036760048036038101906103629190611a8d565b6107a4565b60405161037491906117e2565b60405180910390f35b61038561080f565b604051610392919061188d565b60405180910390f35b6103a36108a1565b6040516103b09190611a72565b60405180910390f35b6103d360048036038101906103ce9190611943565b6108a8565b6040516103e091906117e2565b60405180910390f35b61040360048036038101906103fe9190611943565b61091f565b60405161041091906117e2565b60405180910390f35b610421610942565b60405161042e9190611a72565b60405180910390f35b610451600480360381019061044c9190611a8d565b610966565b005b61046d60048036038101906104689190611b5e565b610987565b60405161047a9190611992565b60405180910390f35b60007f7965db0b000000000000000000000000000000000000000000000000000000007bffffffffffffffffffffffffffffffffffffffffffffffffffffffff1916827bffffffffffffffffffffffffffffffffffffffffffffffffffffffff191614806104f657506104f582610a0e565b5b9050919050565b60606003805461050c90611bcd565b80601f016020809104026020016040519081016040528092919081815260200182805461053890611bcd565b80156105855780601f1061055a57610100808354040283529160200191610585565b820191906000526020600020905b81548152906001019060200180831161056857829003601f168201915b5050505050905090565b60008061059a610a78565b90506105a7818585610a80565b600191505092915050565b6000600254905090565b6000806105c7610a78565b90506105d4858285610c49565b6105df858585610cd5565b60019150509392505050565b600060056000838152602001908152602001600020600101549050919050565b610614826105eb565b61061d81610f4b565b6106278383610f5f565b505050565b60006012905090565b61063d610a78565b73ffffffffffffffffffffffffffffffffffffffff168173ffffffffffffffffffffffffffffffffffffffff16146106aa576040517f08c379a00000000000000000000000000000000000000000000000000000000081526004016106a190611c70565b60405180910390fd5b6106b48282611040565b5050565b6000806106c3610a78565b90506106e48185856106d58589610987565b6106df9190611cbf565b610a80565b600191505092915050565b7f9f2df0fed2c77648de5860a4cc508cd0818c85b8b8a1ab4ceeef8d981c8956a661071981610f4b565b6107238383611122565b505050565b610739610733610a78565b82611278565b50565b60008060008373ffffffffffffffffffffffffffffffffffffffff1673ffffffffffffffffffffffffffffffffffffffff168152602001908152602001600020549050919050565b61079682610790610a78565b83610c49565b6107a08282611278565b5050565b60006005600084815260200190815260200160002060000160008373ffffffffffffffffffffffffffffffffffffffff1673ffffffffffffffffffffffffffffffffffffffff16815260200190815260200160002060009054906101000a900460ff16905092915050565b60606004805461081e90611bcd565b80601f016020809104026020016040519081016040528092919081815260200182805461084a90611bcd565b80156108975780601f1061086c57610100808354040283529160200191610897565b820191906000526020600020905b81548152906001019060200180831161087a57829003601f168201915b5050505050905090565b6000801b81565b6000806108b3610a78565b905060006108c18286610987565b905083811015610906576040517f08c379a00000000000000000000000000000000000000000000000000000000081526004016108fd90611d65565b60405180910390fd5b6109138286868403610a80565b60019250505092915050565b60008061092a610a78565b9050610937818585610cd5565b600191505092915050565b7f9f2df0fed2c77648de5860a4cc508cd0818c85b8b8a1ab4ceeef8d981c8956a681565b61096f826105eb565b61097881610f4b565b6109828383611040565b505050565b6000600160008473ffffffffffffffffffffffffffffffffffffffff1673ffffffffffffffffffffffffffffffffffffffff16815260200190815260200160002060008373ffffffffffffffffffffffffffffffffffffffff1673ffffffffffffffffffffffffffffffffffffffff16815260200190815260200160002054905092915050565b60007f01ffc9a7000000000000000000000000000000000000000000000000000000007bffffffffffffffffffffffffffffffffffffffffffffffffffffffff1916827bffffffffffffffffffffffffffffffffffffffffffffffffffffffff1916149050919050565b600033905090565b600073ffffffffffffffffffffffffffffffffffffffff168373ffffffffffffffffffffffffffffffffffffffff1603610aef576040517f08c379a0000000000000000000000000000000000000000000000000000000008152600401610ae690611df7565b60405180910390fd5b600073ffffffffffffffffffffffffffffffffffffffff168273ffffffffffffffffffffffffffffffffffffffff1603610b5e576040517f08c379a0000000000000000000000000000000000000000000000000000000008152600401610b5590611e89565b60405180910390fd5b80600160008573ffffffffffffffffffffffffffffffffffffffff1673ffffffffffffffffffffffffffffffffffffffff16815260200190815260200160002060008473ffffffffffffffffffffffffffffffffffffffff1673ffffffffffffffffffffffffffffffffffffffff168152602001908152602001600020819055508173ffffffffffffffffffffffffffffffffffffffff168373ffffffffffffffffffffffffffffffffffffffff167f8c5be1e5ebec7d5bd14f71427d1e84f3dd0314c0f7b2291e5b200ac8c7c3b92583604051610c3c9190611992565b60405180910390a3505050565b6000610c558484610987565b90507fffffffffffffffffffffffffffffffffffffffffffffffffffffffffffffffff8114610ccf5781811015610cc1576040517f08c379a0000000000000000000000000000000000000000000000000000000008152600401610cb890611ef5565b60405180910390fd5b610cce8484848403610a80565b5b50505050565b600073ffffffffffffffffffffffffffffffffffffffff168373ffffffffffffffffffffffffffffffffffffffff1603610d44576040517f08c379a0000000000000000000000000000000000000000000000000000000008152600401610d3b90611f87565b60405180910390fd5b600073ffffffffffffffffffffffffffffffffffffffff168273ffffffffffffffffffffffffffffffffffffffff1603610db3576040517f08c379a0000000000000000000000000000000000000000000000000000000008152600401610daa90612019565b60405180910390fd5b610dbe838383611445565b60008060008573ffffffffffffffffffffffffffffffffffffffff1673ffffffffffffffffffffffffffffffffffffffff16815260200190815260200160002054905081811015610e44576040517f08c379a0000000000000000000000000000000000000000000000000000000008152600401610e3b906120ab565b60405180910390fd5b8181036000808673ffffffffffffffffffffffffffffffffffffffff1673ffffffffffffffffffffffffffffffffffffffff16815260200190815260200160002081905550816000808573ffffffffffffffffffffffffffffffffffffffff1673ffffffffffffffffffffffffffffffffffffffff168152602001908152602001600020600082825401925050819055508273ffffffffffffffffffffffffffffffffffffffff168473ffffffffffffffffffffffffffffffffffffffff167fddf252ad1be2c89b69c2b068fc378daa952ba7f163c4a11628f55a4df523b3ef84604051610f329190611992565b60405180910390a3610f4584848461144a565b50505050565b610f5c81610f57610a78565b61144f565b50565b610f6982826107a4565b61103c5760016005600084815260200190815260200160002060000160008373ffffffffffffffffffffffffffffffffffffffff1673ffffffffffffffffffffffffffffffffffffffff16815260200190815260200160002060006101000a81548160ff021916908315150217905550610fe1610a78565b73ffffffffffffffffffffffffffffffffffffffff168173ffffffffffffffffffffffffffffffffffffffff16837f2f8788117e7eff1d82e926ec794901d17c78024a50270940304540a733656f0d60405160405180910390a45b5050565b61104a82826107a4565b1561111e5760006005600084815260200190815260200160002060000160008373ffffffffffffffffffffffffffffffffffffffff1673ffffffffffffffffffffffffffffffffffffffff16815260200190815260200160002060006101000a81548160ff0219169083151502179055506110c3610a78565b73ffffffffffffffffffffffffffffffffffffffff168173ffffffffffffffffffffffffffffffffffffffff16837ff6391f5c32d9c69d2a47ea670b442974b53935d1edc7fd64eb21e047a839171b60405160405180910390a45b5050565b600073ffffffffffffffffffffffffffffffffffffffff168273ffffffffffffffffffffffffffffffffffffffff1603611191576040517f08c379a000000000000000000000000000000000000000000000000000000000815260040161118890612117565b60405180910390fd5b61119d60008383611445565b80600260008282546111af9190611cbf565b92505081905550806000808473ffffffffffffffffffffffffffffffffffffffff1673ffffffffffffffffffffffffffffffffffffffff168152602001908152602001600020600082825401925050819055508173ffffffffffffffffffffffffffffffffffffffff16600073ffffffffffffffffffffffffffffffffffffffff167fddf252ad1be2c89b69c2b068fc378daa952ba7f163c4a11628f55a4df523b3ef836040516112609190611992565b60405180910390a36112746000838361144a565b5050565b600073ffffffffffffffffffffffffffffffffffffffff168273ffffffffffffffffffffffffffffffffffffffff16036112e7576040517f08c379a00000000000000000000000000000000000000000000000000000000081526004016112de906121a9565b60405180910390fd5b6112f382600083611445565b60008060008473ffffffffffffffffffffffffffffffffffffffff1673ffffffffffffffffffffffffffffffffffffffff16815260200190815260200160002054905081811015611379576040517f08c379a00000000000000000000000000000000000000000000000000000000081526004016113709061223b565b60405180910390fd5b8181036000808573ffffffffffffffffffffffffffffffffffffffff1673ffffffffffffffffffffffffffffffffffffffff1681526020019081526020016000208190555081600260008282540392505081905550600073ffffffffffffffffffffffffffffffffffffffff168373ffffffffffffffffffffffffffffffffffffffff167fddf252ad1be2c89b69c2b068fc378daa952ba7f163c4a11628f55a4df523b3ef8460405161142c9190611992565b60405180910390a36114408360008461144a565b505050565b505050565b505050565b61145982826107a4565b6114d057611466816114d4565b6114748360001c6020611501565b60405160200161148592919061232f565b6040516020818303038152906040526040517f08c379a00000000000000000000000000000000000000000000000000000000081526004016114c7919061188d565b60405180910390fd5b5050565b60606114fa8273ffffffffffffffffffffffffffffffffffffffff16601460ff16611501565b9050919050565b6060600060028360026115149190612369565b61151e9190611cbf565b67ffffffffffffffff811115611537576115366123ab565b5b6040519080825280601f01601f1916602001820160405280156115695781602001600182028036833780820191505090505b5090507f3000000000000000000000000000000000000000000000000000000000000000816000815181106115a1576115a06123da565b5b60200101907effffffffffffffffffffffffffffffffffffffffffffffffffffffffffffff1916908160001a9053507f780000000000000000000000000000000000000000000000000000000000000081600181518110611605576116046123da565b5b60200101907effffffffffffffffffffffffffffffffffffffffffffffffffffffffffffff1916908160001a905350600060018460026116459190612369565b61164f9190611cbf565b90505b60018111156116ef577f3031323334353637383961626364656600000000000000000000000000000000600f861660108110611691576116906123da565b5b1a60f81b8282815181106116a8576116a76123da565b5b60200101907effffffffffffffffffffffffffffffffffffffffffffffffffffffffffffff1916908160001a905350600485901c9450806116e890612409565b9050611652565b5060008414611733576040517f08c379a000000000000000000000000000000000000000000000000000000000815260040161172a9061247e565b60405180910390fd5b8091505092915050565b600080fd5b60007fffffffff0000000000000000000000000000000000000000000000000000000082169050919050565b61177781611742565b811461178257600080fd5b50565b6000813590506117948161176e565b92915050565b6000602082840312156117b0576117af61173d565b5b60006117be84828501611785565b91505092915050565b60008115159050919050565b6117dc816117c7565b82525050565b60006020820190506117f760008301846117d3565b92915050565b600081519050919050565b600082825260208201905092915050565b60005b8381101561183757808201518184015260208101905061181c565b60008484015250505050565b6000601f19601f8301169050919050565b600061185f826117fd565b6118698185611808565b9350611879818560208601611819565b61188281611843565b840191505092915050565b600060208201905081810360008301526118a78184611854565b905092915050565b600073ffffffffffffffffffffffffffffffffffffffff82169050919050565b60006118da826118af565b9050919050565b6118ea816118cf565b81146118f557600080fd5b50565b600081359050611907816118e1565b92915050565b6000819050919050565b6119208161190d565b811461192b57600080fd5b50565b60008135905061193d81611917565b92915050565b6000806040838503121561195a5761195961173d565b5b6000611968858286016118f8565b92505060206119798582860161192e565b9150509250929050565b61198c8161190d565b82525050565b60006020820190506119a76000830184611983565b92915050565b6000806000606084860312156119c6576119c561173d565b5b60006119d4868287016118f8565b93505060206119e5868287016118f8565b92505060406119f68682870161192e565b9150509250925092565b6000819050919050565b611a1381611a00565b8114611a1e57600080fd5b50565b600081359050611a3081611a0a565b92915050565b600060208284031215611a4c57611a4b61173d565b5b6000611a5a84828501611a21565b91505092915050565b611a6c81611a00565b82525050565b6000602082019050611a876000830184611a63565b92915050565b60008060408385031215611aa457611aa361173d565b5b6000611ab285828601611a21565b9250506020611ac3858286016118f8565b9150509250929050565b600060ff82169050919050565b611ae381611acd565b82525050565b6000602082019050611afe6000830184611ada565b92915050565b600060208284031215611b1a57611b1961173d565b5b6000611b288482850161192e565b91505092915050565b600060208284031215611b4757611b4661173d565b5b6000611b55848285016118f8565b91505092915050565b60008060408385031215611b7557611b7461173d565b5b6000611b83858286016118f8565b9250506020611b94858286016118f8565b9150509250929050565b7f4e487b7100000000000000000000000000000000000000000000000000000000600052602260045260246000fd5b60006002820490506001821680611be557607f821691505b602082108103611bf857611bf7611b9e565b5b50919050565b7f416363657373436f6e74726f6c3a2063616e206f6e6c792072656e6f756e636560008201527f20726f6c657320666f722073656c660000000000000000000000000000000000602082015250565b6000611c5a602f83611808565b9150611c6582611bfe565b604082019050919050565b60006020820190508181036000830152611c8981611c4d565b9050919050565b7f4e487b7100000000000000000000000000000000000000000000000000000000600052601160045260246000fd5b6000611cca8261190d565b9150611cd58361190d565b9250828201905080821115611ced57611cec611c90565b5b92915050565b7f45524332303a2064656372656173656420616c6c6f77616e63652062656c6f7760008201527f207a65726f000000000000000000000000000000000000000000000000000000602082015250565b6000611d4f602583611808565b9150611d5a82611cf3565b604082019050919050565b60006020820190508181036000830152611d7e81611d42565b9050919050565b7f45524332303a20617070726f76652066726f6d20746865207a65726f2061646460008201527f7265737300000000000000000000000000000000000000000000000000000000602082015250565b6000611de1602483611808565b9150611dec82611d85565b604082019050919050565b60006020820190508181036000830152611e1081611dd4565b9050919050565b7f45524332303a20617070726f766520746f20746865207a65726f20616464726560008201527f7373000000000000000000000000000000000000000000000000000000000000602082015250565b6000611e73602283611808565b9150611e7e82611e17565b604082019050919050565b60006020820190508181036000830152611ea281611e66565b9050919050565b7f45524332303a20696e73756666696369656e7420616c6c6f77616e6365000000600082015250565b6000611edf601d83611808565b9150611eea82611ea9565b602082019050919050565b60006020820190508181036000830152611f0e81611ed2565b9050919050565b7f45524332303a207472616e736665722066726f6d20746865207a65726f20616460008201527f6472657373000000000000000000000000000000000000000000000000000000602082015250565b6000611f71602583611808565b9150611f7c82611f15565b604082019050919050565b60006020820190508181036000830152611fa081611f64565b9050919050565b7f45524332303a207472616e7366657220746f20746865207a65726f206164647260008201527f6573730000000000000000000000000000000000000000000000000000000000602082015250565b6000612003602383611808565b915061200e82611fa7565b604082019050919050565b6000602082019050818103600083015261203281611ff6565b9050919050565b7f45524332303a207472616e7366657220616d6f756e742065786365656473206260008201527f616c616e63650000000000000000000000000000000000000000000000000000602082015250565b6000612095602683611808565b91506120a082612039565b604082019050919050565b600060208201905081810360008301526120c481612088565b9050919050565b7f45524332303a206d696e7420746f20746865207a65726f206164647265737300600082015250565b6000612101601f83611808565b915061210c826120cb565b602082019050919050565b60006020820190508181036000830152612130816120f4565b9050919050565b7f45524332303a206275726e2066726f6d20746865207a65726f2061646472657360008201527f7300000000000000000000000000000000000000000000000000000000000000602082015250565b6000612193602183611808565b915061219e82612137565b604082019050919050565b600060208201905081810360008301526121c281612186565b9050919050565b7f45524332303a206275726e20616d6f756e7420657863656564732062616c616e60008201527f6365000000000000000000000000000000000000000000000000000000000000602082015250565b6000612225602283611808565b9150612230826121c9565b604082019050919050565b6000602082019050818103600083015261225481612218565b9050919050565b600081905092915050565b7f416363657373436f6e74726f6c3a206163636f756e7420000000000000000000600082015250565b600061229c60178361225b565b91506122a782612266565b601782019050919050565b60006122bd826117fd565b6122c7818561225b565b93506122d7818560208601611819565b80840191505092915050565b7f206973206d697373696e6720726f6c6520000000000000000000000000000000600082015250565b600061231960118361225b565b9150612324826122e3565b601182019050919050565b600061233a8261228f565b915061234682856122b2565b91506123518261230c565b915061235d82846122b2565b91508190509392505050565b60006123748261190d565b915061237f8361190d565b925082820261238d8161190d565b915082820484148315176123a4576123a3611c90565b5b5092915050565b7f4e487b7100000000000000000000000000000000000000000000000000000000600052604160045260246000fd5b7f4e487b7100000000000000000000000000000000000000000000000000000000600052603260045260246000fd5b60006124148261190d565b91506000820361242757612426611c90565b5b600182039050919050565b7f537472696e67733a20686578206c656e67746820696e73756666696369656e74600082015250565b6000612468602083611808565b915061247382612432565b602082019050919050565b600060208201905081810360008301526124978161245b565b905091905056fea26469706673582212203aff6dad1bb702574996dc55eac603081bafb74a5907a24822ac2343400650d964736f6c6343000811003360806040523480156200001157600080fd5b506040518060400160405280600981526020017f566964656f4c69737400000000000000000000000000000000000000000000008152506040518060400160405280600381526020017f56444c000000000000000000000000000000000000000000000000000000000081525081600090816200008f919062000324565b508060019081620000a1919062000324565b5050506200040b565b600081519050919050565b7f4e487b7100000000000000000000000000000000000000000000000000000000600052604160045260246000fd5b7f4e487b7100000000000000000000000000000000000000000000000000000000600052602260045260246000fd5b600060028204905060018216806200012c57607f821691505b602082108103620001425762000141620000e4565b5b50919050565b60008190508160005260206000209050919050565b60006020601f8301049050919050565b600082821b905092915050565b600060088302620001ac7fffffffffffffffffffffffffffffffffffffffffffffffffffffffffffffffff826200016d565b620001b886836200016d565b95508019841693508086168417925050509392505050565b6000819050919050565b6000819050919050565b600062000205620001ff620001f984620001d0565b620001da565b620001d0565b9050919050565b6000819050919050565b6200022183620001e4565b6200023962000230826200020c565b8484546200017a565b825550505050565b600090565b6200025062000241565b6200025d81848462000216565b505050565b5b8181101562000285576200027960008262000246565b60018101905062000263565b5050565b601f821115620002d4576200029e8162000148565b620002a9846200015d565b81016020851015620002b9578190505b620002d1620002c8856200015d565b83018262000262565b50505b505050565b600082821c905092915050565b6000620002f960001984600802620002d9565b1980831691505092915050565b6000620003148383620002e6565b9150826002028217905092915050565b6200032f82620000aa565b67ffffffffffffffff8111156200034b576200034a620000b5565b5b62000357825462000113565b6200036482828562000289565b600060209050601f8311600181146200039c576000841562000387578287015190505b62000393858262000306565b86555062000403565b601f198416620003ac8662000148565b60005b82811015620003d657848901518255600182019150602085019450602081019050620003af565b86831015620003f65784890151620003f2601f891682620002e6565b8355505b6001600288020188555050505b505050505050565b612b04806200041b6000396000f3fe608060405234801561001057600080fd5b50600436106100ea5760003560e01c80636352211e1161008c578063a22cb46511610066578063a22cb4651461026f578063b88d4fde1461028b578063c87b56dd146102a7578063e985e9c5146102d7576100ea565b80636352211e146101f157806370a082311461022157806395d89b4114610251576100ea565b8063095ea7b3116100c8578063095ea7b31461016d57806323b872dd1461018957806326fb76c2146101a557806342842e0e146101d5576100ea565b806301ffc9a7146100ef57806306fdde031461011f578063081812fc1461013d575b600080fd5b610109600480360381019061010491906119f3565b610307565b6040516101169190611a3b565b60405180910390f35b610127610319565b6040516101349190611ae6565b60405180910390f35b61015760048036038101906101529190611b3e565b6103ab565b6040516101649190611bac565b60405180910390f35b61018760048036038101906101829190611bf3565b6103f1565b005b6101a3600480360381019061019e9190611c33565b610508565b005b6101bf60048036038101906101ba9190611dbb565b610568565b6040516101cc9190611e26565b60405180910390f35b6101ef60048036038101906101ea9190611c33565b6105a0565b005b61020b60048036038101906102069190611b3e565b6105c0565b6040516102189190611bac565b60405180910390f35b61023b60048036038101906102369190611e41565b610646565b6040516102489190611e26565b60405180910390f35b6102596106fd565b6040516102669190611ae6565b60405180910390f35b61028960048036038101906102849190611e9a565b61078f565b005b6102a560048036038101906102a09190611f7b565b6107a5565b005b6102c160048036038101906102bc9190611b3e565b610807565b6040516102ce9190611ae6565b60405180910390f35b6102f160048036038101906102ec9190611ffe565b610819565b6040516102fe9190611a3b565b60405180910390f35b6000610312826108ad565b9050919050565b6060600080546103289061206d565b80601f01602080910402602001604051908101604052809291908181526020018280546103549061206d565b80156103a15780601f10610376576101008083540402835291602001916103a1565b820191906000526020600020905b81548152906001019060200180831161038457829003601f168201915b5050505050905090565b60006103b68261090e565b6004600083815260200190815260200160002060009054906101000a900473ffffffffffffffffffffffffffffffffffffffff169050919050565b60006103fc826105c0565b90508073ffffffffffffffffffffffffffffffffffffffff168373ffffffffffffffffffffffffffffffffffffffff160361046c576040517f08c379a000000000000000000000000000000000000000000000000000000000815260040161046390612110565b60405180910390fd5b8073ffffffffffffffffffffffffffffffffffffffff1661048b610959565b73ffffffffffffffffffffffffffffffffffffffff1614806104ba57506104b9816104b4610959565b610819565b5b6104f9576040517f08c379a00000000000000000000000000000000000000000000000000000000081526004016104f0906121a2565b60405180910390fd5b6105038383610961565b505050565b610519610513610959565b82610a1a565b610558576040517f08c379a000000000000000000000000000000000000000000000000000000000815260040161054f90612234565b60405180910390fd5b610563838383610aaf565b505050565b60006105746007610da8565b60006105806007610dbe565b905061058c8482610dcc565b6105968184610fe9565b8091505092915050565b6105bb838383604051806020016040528060008152506107a5565b505050565b6000806105cc8361108d565b9050600073ffffffffffffffffffffffffffffffffffffffff168173ffffffffffffffffffffffffffffffffffffffff160361063d576040517f08c379a0000000000000000000000000000000000000000000000000000000008152600401610634906122a0565b60405180910390fd5b80915050919050565b60008073ffffffffffffffffffffffffffffffffffffffff168273ffffffffffffffffffffffffffffffffffffffff16036106b6576040517f08c379a00000000000000000000000000000000000000000000000000000000081526004016106ad90612332565b60405180910390fd5b600360008373ffffffffffffffffffffffffffffffffffffffff1673ffffffffffffffffffffffffffffffffffffffff168152602001908152602001600020549050919050565b60606001805461070c9061206d565b80601f01602080910402602001604051908101604052809291908181526020018280546107389061206d565b80156107855780601f1061075a57610100808354040283529160200191610785565b820191906000526020600020905b81548152906001019060200180831161076857829003601f168201915b5050505050905090565b6107a161079a610959565b83836110ca565b5050565b6107b66107b0610959565b83610a1a565b6107f5576040517f08c379a00000000000000000000000000000000000000000000000000000000081526004016107ec90612234565b60405180910390fd5b61080184848484611236565b50505050565b606061081282611292565b9050919050565b6000600560008473ffffffffffffffffffffffffffffffffffffffff1673ffffffffffffffffffffffffffffffffffffffff16815260200190815260200160002060008373ffffffffffffffffffffffffffffffffffffffff1673ffffffffffffffffffffffffffffffffffffffff16815260200190815260200160002060009054906101000a900460ff16905092915050565b6000634906490660e01b7bffffffffffffffffffffffffffffffffffffffffffffffffffffffff1916827bffffffffffffffffffffffffffffffffffffffffffffffffffffffff191614806109075750610906826113a4565b5b9050919050565b61091781611486565b610956576040517f08c379a000000000000000000000000000000000000000000000000000000000815260040161094d906122a0565b60405180910390fd5b50565b600033905090565b816004600083815260200190815260200160002060006101000a81548173ffffffffffffffffffffffffffffffffffffffff021916908373ffffffffffffffffffffffffffffffffffffffff160217905550808273ffffffffffffffffffffffffffffffffffffffff166109d4836105c0565b73ffffffffffffffffffffffffffffffffffffffff167f8c5be1e5ebec7d5bd14f71427d1e84f3dd0314c0f7b2291e5b200ac8c7c3b92560405160405180910390a45050565b600080610a26836105c0565b90508073ffffffffffffffffffffffffffffffffffffffff168473ffffffffffffffffffffffffffffffffffffffff161480610a685750610a678185610819565b5b80610aa657508373ffffffffffffffffffffffffffffffffffffffff16610a8e846103ab565b73ffffffffffffffffffffffffffffffffffffffff16145b91505092915050565b8273ffffffffffffffffffffffffffffffffffffffff16610acf826105c0565b73ffffffffffffffffffffffffffffffffffffffff1614610b25576040517f08c379a0000000000000000000000000000000000000000000000000000000008152600401610b1c906123c4565b60405180910390fd5b600073ffffffffffffffffffffffffffffffffffffffff168273ffffffffffffffffffffffffffffffffffffffff1603610b94576040517f08c379a0000000000000000000000000000000000000000000000000000000008152600401610b8b90612456565b60405180910390fd5b610ba183838360016114c7565b8273ffffffffffffffffffffffffffffffffffffffff16610bc1826105c0565b73ffffffffffffffffffffffffffffffffffffffff1614610c17576040517f08c379a0000000000000000000000000000000000000000000000000000000008152600401610c0e906123c4565b60405180910390fd5b6004600082815260200190815260200160002060006101000a81549073ffffffffffffffffffffffffffffffffffffffff02191690556001600360008573ffffffffffffffffffffffffffffffffffffffff1673ffffffffffffffffffffffffffffffffffffffff168152602001908152602001600020600082825403925050819055506001600360008473ffffffffffffffffffffffffffffffffffffffff1673ffffffffffffffffffffffffffffffffffffffff16815260200190815260200160002060008282540192505081905550816002600083815260200190815260200160002060006101000a81548173ffffffffffffffffffffffffffffffffffffffff021916908373ffffffffffffffffffffffffffffffffffffffff160217905550808273ffffffffffffffffffffffffffffffffffffffff168473ffffffffffffffffffffffffffffffffffffffff167fddf252ad1be2c89b69c2b068fc378daa952ba7f163c4a11628f55a4df523b3ef60405160405180910390a4610da383838360016114cd565b505050565b6001816000016000828254019250508190555050565b600081600001549050919050565b600073ffffffffffffffffffffffffffffffffffffffff168273ffffffffffffffffffffffffffffffffffffffff1603610e3b576040517f08c379a0000000000000000000000000000000000000000000000000000000008152600401610e32906124c2565b60405180910390fd5b610e4481611486565b15610e84576040517f08c379a0000000000000000000000000000000000000000000000000000000008152600401610e7b9061252e565b60405180910390fd5b610e926000838360016114c7565b610e9b81611486565b15610edb576040517f08c379a0000000000000000000000000000000000000000000000000000000008152600401610ed29061252e565b60405180910390fd5b6001600360008473ffffffffffffffffffffffffffffffffffffffff1673ffffffffffffffffffffffffffffffffffffffff16815260200190815260200160002060008282540192505081905550816002600083815260200190815260200160002060006101000a81548173ffffffffffffffffffffffffffffffffffffffff021916908373ffffffffffffffffffffffffffffffffffffffff160217905550808273ffffffffffffffffffffffffffffffffffffffff16600073ffffffffffffffffffffffffffffffffffffffff167fddf252ad1be2c89b69c2b068fc378daa952ba7f163c4a11628f55a4df523b3ef60405160405180910390a4610fe56000838360016114cd565b5050565b610ff282611486565b611031576040517f08c379a0000000000000000000000000000000000000000000000000000000008152600401611028906125c0565b60405180910390fd5b80600660008481526020019081526020016000209081611051919061278c565b507ff8e1a15aba9398e019f0b49df1a4fde98ee17ae345cb5f6b5e2c27f5033e8ce7826040516110819190611e26565b60405180910390a15050565b60006002600083815260200190815260200160002060009054906101000a900473ffffffffffffffffffffffffffffffffffffffff169050919050565b8173ffffffffffffffffffffffffffffffffffffffff168373ffffffffffffffffffffffffffffffffffffffff1603611138576040517f08c379a000000000000000000000000000000000000000000000000000000000815260040161112f906128aa565b60405180910390fd5b80600560008573ffffffffffffffffffffffffffffffffffffffff1673ffffffffffffffffffffffffffffffffffffffff16815260200190815260200160002060008473ffffffffffffffffffffffffffffffffffffffff1673ffffffffffffffffffffffffffffffffffffffff16815260200190815260200160002060006101000a81548160ff0219169083151502179055508173ffffffffffffffffffffffffffffffffffffffff168373ffffffffffffffffffffffffffffffffffffffff167f17307eab39ab6107e8899845ad3d59bd9653f200f220920489ca2b5937696c31836040516112299190611a3b565b60405180910390a3505050565b611241848484610aaf565b61124d848484846114d3565b61128c576040517f08c379a00000000000000000000000000000000000000000000000000000000081526004016112839061293c565b60405180910390fd5b50505050565b606061129d8261090e565b60006006600084815260200190815260200160002080546112bd9061206d565b80601f01602080910402602001604051908101604052809291908181526020018280546112e99061206d565b80156113365780601f1061130b57610100808354040283529160200191611336565b820191906000526020600020905b81548152906001019060200180831161131957829003601f168201915b50505050509050600061134761165a565b9050600081510361135c57819250505061139f565b600082511115611391578082604051602001611379929190612998565b6040516020818303038152906040529250505061139f565b61139a84611671565b925050505b919050565b60007f80ac58cd000000000000000000000000000000000000000000000000000000007bffffffffffffffffffffffffffffffffffffffffffffffffffffffff1916827bffffffffffffffffffffffffffffffffffffffffffffffffffffffff1916148061146f57507f5b5e139f000000000000000000000000000000000000000000000000000000007bffffffffffffffffffffffffffffffffffffffffffffffffffffffff1916827bffffffffffffffffffffffffffffffffffffffffffffffffffffffff1916145b8061147f575061147e826116d9565b5b9050919050565b60008073ffffffffffffffffffffffffffffffffffffffff166114a88361108d565b73ffffffffffffffffffffffffffffffffffffffff1614159050919050565b50505050565b50505050565b60006114f48473ffffffffffffffffffffffffffffffffffffffff16611743565b1561164d578373ffffffffffffffffffffffffffffffffffffffff1663150b7a0261151d610959565b8786866040518563ffffffff1660e01b815260040161153f9493929190612a11565b6020604051808303816000875af192505050801561157b57506040513d601f19601f820116820180604052508101906115789190612a72565b60015b6115fd573d80600081146115ab576040519150601f19603f3d011682016040523d82523d6000602084013e6115b0565b606091505b5060008151036115f5576040517f08c379a00000000000000000000000000000000000000000000000000000000081526004016115ec9061293c565b60405180910390fd5b805181602001fd5b63150b7a0260e01b7bffffffffffffffffffffffffffffffffffffffffffffffffffffffff1916817bffffffffffffffffffffffffffffffffffffffffffffffffffffffff191614915050611652565b600190505b949350505050565b606060405180602001604052806000815250905090565b606061167c8261090e565b600061168661165a565b905060008151116116a657604051806020016040528060008152506116d1565b806116b084611766565b6040516020016116c1929190612998565b6040516020818303038152906040525b915050919050565b60007f01ffc9a7000000000000000000000000000000000000000000000000000000007bffffffffffffffffffffffffffffffffffffffffffffffffffffffff1916827bffffffffffffffffffffffffffffffffffffffffffffffffffffffff1916149050919050565b6000808273ffffffffffffffffffffffffffffffffffffffff163b119050919050565b60606000600161177584611834565b01905060008167ffffffffffffffff81111561179457611793611c90565b5b6040519080825280601f01601f1916602001820160405280156117c65781602001600182028036833780820191505090505b509050600082602001820190505b600115611829578080600190039150507f3031323334353637383961626364656600000000000000000000000000000000600a86061a8153600a858161181d5761181c612a9f565b5b049450600085036117d4575b819350505050919050565b600080600090507a184f03e93ff9f4daa797ed6e38ed64bf6a1f0100000000000000008310611892577a184f03e93ff9f4daa797ed6e38ed64bf6a1f010000000000000000838161188857611887612a9f565b5b0492506040810190505b6d04ee2d6d415b85acef810000000083106118cf576d04ee2d6d415b85acef810000000083816118c5576118c4612a9f565b5b0492506020810190505b662386f26fc1000083106118fe57662386f26fc1000083816118f4576118f3612a9f565b5b0492506010810190505b6305f5e1008310611927576305f5e100838161191d5761191c612a9f565b5b0492506008810190505b612710831061194c57612710838161194257611941612a9f565b5b0492506004810190505b6064831061196f576064838161196557611964612a9f565b5b0492506002810190505b600a831061197e576001810190505b80915050919050565b6000604051905090565b600080fd5b600080fd5b60007fffffffff0000000000000000000000000000000000000000000000000000000082169050919050565b6119d08161199b565b81146119db57600080fd5b50565b6000813590506119ed816119c7565b92915050565b600060208284031215611a0957611a08611991565b5b6000611a17848285016119de565b91505092915050565b60008115159050919050565b611a3581611a20565b82525050565b6000602082019050611a506000830184611a2c565b92915050565b600081519050919050565b600082825260208201905092915050565b60005b83811015611a90578082015181840152602081019050611a75565b60008484015250505050565b6000601f19601f8301169050919050565b6000611ab882611a56565b611ac28185611a61565b9350611ad2818560208601611a72565b611adb81611a9c565b840191505092915050565b60006020820190508181036000830152611b008184611aad565b905092915050565b6000819050919050565b611b1b81611b08565b8114611b2657600080fd5b50565b600081359050611b3881611b12565b92915050565b600060208284031215611b5457611b53611991565b5b6000611b6284828501611b29565b91505092915050565b600073ffffffffffffffffffffffffffffffffffffffff82169050919050565b6000611b9682611b6b565b9050919050565b611ba681611b8b565b82525050565b6000602082019050611bc16000830184611b9d565b92915050565b611bd081611b8b565b8114611bdb57600080fd5b50565b600081359050611bed81611bc7565b92915050565b60008060408385031215611c0a57611c09611991565b5b6000611c1885828601611bde565b9250506020611c2985828601611b29565b9150509250929050565b600080600060608486031215611c4c57611c4b611991565b5b6000611c5a86828701611bde565b9350506020611c6b86828701611bde565b9250506040611c7c86828701611b29565b9150509250925092565b600080fd5b600080fd5b7f4e487b7100000000000000000000000000000000000000000000000000000000600052604160045260246000fd5b611cc882611a9c565b810181811067ffffffffffffffff82111715611ce757611ce6611c90565b5b80604052505050565b6000611cfa611987565b9050611d068282611cbf565b919050565b600067ffffffffffffffff821115611d2657611d25611c90565b5b611d2f82611a9c565b9050602081019050919050565b82818337600083830152505050565b6000611d5e611d5984611d0b565b611cf0565b905082815260208101848484011115611d7a57611d79611c8b565b5b611d85848285611d3c565b509392505050565b600082601f830112611da257611da1611c86565b5b8135611db2848260208601611d4b565b91505092915050565b60008060408385031215611dd257611dd1611991565b5b6000611de085828601611bde565b925050602083013567ffffffffffffffff811115611e0157611e00611996565b5b611e0d85828601611d8d565b9150509250929050565b611e2081611b08565b82525050565b6000602082019050611e3b6000830184611e17565b92915050565b600060208284031215611e5757611e56611991565b5b6000611e6584828501611bde565b91505092915050565b611e7781611a20565b8114611e8257600080fd5b50565b600081359050611e9481611e6e565b92915050565b60008060408385031215611eb157611eb0611991565b5b6000611ebf85828601611bde565b9250506020611ed085828601611e85565b9150509250929050565b600067ffffffffffffffff821115611ef557611ef4611c90565b5b611efe82611a9c565b9050602081019050919050565b6000611f1e611f1984611eda565b611cf0565b905082815260208101848484011115611f3a57611f39611c8b565b5b611f45848285611d3c565b509392505050565b600082601f830112611f6257611f61611c86565b5b8135611f72848260208601611f0b565b91505092915050565b60008060008060808587031215611f9557611f94611991565b5b6000611fa387828801611bde565b9450506020611fb487828801611bde565b9350506040611fc587828801611b29565b925050606085013567ffffffffffffffff811115611fe657611fe5611996565b5b611ff287828801611f4d565b91505092959194509250565b6000806040838503121561201557612014611991565b5b600061202385828601611bde565b925050602061203485828601611bde565b9150509250929050565b7f4e487b7100000000000000000000000000000000000000000000000000000000600052602260045260246000fd5b6000600282049050600182168061208557607f821691505b6020821081036120985761209761203e565b5b50919050565b7f4552433732313a20617070726f76616c20746f2063757272656e74206f776e6560008201527f7200000000000000000000000000000000000000000000000000000000000000602082015250565b60006120fa602183611a61565b91506121058261209e565b604082019050919050565b60006020820190508181036000830152612129816120ed565b9050919050565b7f4552433732313a20617070726f76652063616c6c6572206973206e6f7420746f60008201527f6b656e206f776e6572206f7220617070726f76656420666f7220616c6c000000602082015250565b600061218c603d83611a61565b915061219782612130565b604082019050919050565b600060208201905081810360008301526121bb8161217f565b9050919050565b7f4552433732313a2063616c6c6572206973206e6f7420746f6b656e206f776e6560008201527f72206f7220617070726f76656400000000000000000000000000000000000000602082015250565b600061221e602d83611a61565b9150612229826121c2565b604082019050919050565b6000602082019050818103600083015261224d81612211565b9050919050565b7f4552433732313a20696e76616c696420746f6b656e2049440000000000000000600082015250565b600061228a601883611a61565b915061229582612254565b602082019050919050565b600060208201905081810360008301526122b98161227d565b9050919050565b7f4552433732313a2061646472657373207a65726f206973206e6f74206120766160008201527f6c6964206f776e65720000000000000000000000000000000000000000000000602082015250565b600061231c602983611a61565b9150612327826122c0565b604082019050919050565b6000602082019050818103600083015261234b8161230f565b9050919050565b7f4552433732313a207472616e736665722066726f6d20696e636f72726563742060008201527f6f776e6572000000000000000000000000000000000000000000000000000000602082015250565b60006123ae602583611a61565b91506123b982612352565b604082019050919050565b600060208201905081810360008301526123dd816123a1565b9050919050565b7f4552433732313a207472616e7366657220746f20746865207a65726f2061646460008201527f7265737300000000000000000000000000000000000000000000000000000000602082015250565b6000612440602483611a61565b915061244b826123e4565b604082019050919050565b6000602082019050818103600083015261246f81612433565b9050919050565b7f4552433732313a206d696e7420746f20746865207a65726f2061646472657373600082015250565b60006124ac602083611a61565b91506124b782612476565b602082019050919050565b600060208201905081810360008301526124db8161249f565b9050919050565b7f4552433732313a20746f6b656e20616c7265616479206d696e74656400000000600082015250565b6000612518601c83611a61565b9150612523826124e2565b602082019050919050565b600060208201905081810360008301526125478161250b565b9050919050565b7f45524337323155524953746f726167653a2055524920736574206f66206e6f6e60008201527f6578697374656e7420746f6b656e000000000000000000000000000000000000602082015250565b60006125aa602e83611a61565b91506125b58261254e565b604082019050919050565b600060208201905081810360008301526125d98161259d565b9050919050565b60008190508160005260206000209050919050565b60006020601f8301049050919050565b600082821b905092915050565b6000600883026126427fffffffffffffffffffffffffffffffffffffffffffffffffffffffffffffffff82612605565b61264c8683612605565b95508019841693508086168417925050509392505050565b6000819050919050565b600061268961268461267f84611b08565b612664565b611b08565b9050919050565b6000819050919050565b6126a38361266e565b6126b76126af82612690565b848454612612565b825550505050565b600090565b6126cc6126bf565b6126d781848461269a565b505050565b5b818110156126fb576126f06000826126c4565b6001810190506126dd565b5050565b601f82111561274057612711816125e0565b61271a846125f5565b81016020851015612729578190505b61273d612735856125f5565b8301826126dc565b50505b505050565b600082821c905092915050565b600061276360001984600802612745565b1980831691505092915050565b600061277c8383612752565b9150826002028217905092915050565b61279582611a56565b67ffffffffffffffff8111156127ae576127ad611c90565b5b6127b8825461206d565b6127c38282856126ff565b600060209050601f8311600181146127f657600084156127e4578287015190505b6127ee8582612770565b865550612856565b601f198416612804866125e0565b60005b8281101561282c57848901518255600182019150602085019450602081019050612807565b868310156128495784890151612845601f891682612752565b8355505b6001600288020188555050505b505050505050565b7f4552433732313a20617070726f766520746f2063616c6c657200000000000000600082015250565b6000612894601983611a61565b915061289f8261285e565b602082019050919050565b600060208201905081810360008301526128c381612887565b9050919050565b7f4552433732313a207472616e7366657220746f206e6f6e20455243373231526560008201527f63656976657220696d706c656d656e7465720000000000000000000000000000602082015250565b6000612926603283611a61565b9150612931826128ca565b604082019050919050565b6000602082019050818103600083015261295581612919565b9050919050565b600081905092915050565b600061297282611a56565b61297c818561295c565b935061298c818560208601611a72565b80840191505092915050565b60006129a48285612967565b91506129b08284612967565b91508190509392505050565b600081519050919050565b600082825260208201905092915050565b60006129e3826129bc565b6129ed81856129c7565b93506129fd818560208601611a72565b612a0681611a9c565b840191505092915050565b6000608082019050612a266000830187611b9d565b612a336020830186611b9d565b612a406040830185611e17565b8181036060830152612a5281846129d8565b905095945050505050565b600081519050612a6c816119c7565b92915050565b600060208284031215612a8857612a87611991565b5b6000612a9684828501612a5d565b91505092915050565b7f4e487b7100000000000000000000000000000000000000000000000000000000600052601260045260246000fdfea2646970667358221220b71e3aed7daed5570a062c70d6a3beea23570e371f6c1be3767bfc0d69d63bb764736f6c63430008110033",
  "linkReferences": {},
  "deployedLinkReferences": {}
}