{
  "_format": "hh-sol-artifact-1",
  "contractName": "VideoList",
  "sourceName": "contracts/VideoList.sol",
  "abi": [
    {
      "inputs": [],
      "stateMutability": "nonpayable",
      "type": "constructor"
    },
    {
      "anonymous": false,
      "inputs": [
        {
          "indexed": true,
          "internalType": "address",
          "name": "owner",
          "type": "address"
        },
        {
          "indexed": true,
          "internalType": "address",
          "name": "approved",
          "type": "address"
        },
        {
          "indexed": true,
          "internalType": "uint256",
          "name": "tokenId",
          "type": "uint256"
        }
      ],
      "name": "Approval",
      "type": "event"
    },
    {
      "anonymous": false,
      "inputs": [
        {
          "indexed": true,
          "internalType": "address",
          "name": "owner",
          "type": "address"
        },
        {
          "indexed": true,
          "internalType": "address",
          "name": "operator",
          "type": "address"
        },
        {
          "indexed": false,
          "internalType": "bool",
          "name": "approved",
          "type": "bool"
        }
      ],
      "name": "ApprovalForAll",
      "type": "event"
    },
    {
      "anonymous": false,
      "inputs": [
        {
          "indexed": false,
          "internalType": "uint256",
          "name": "_fromTokenId",
          "type": "uint256"
        },
        {
          "indexed": false,
          "internalType": "uint256",
          "name": "_toTokenId",
          "type": "uint256"
        }
      ],
      "name": "BatchMetadataUpdate",
      "type": "event"
    },
    {
      "anonymous": false,
      "inputs": [
        {
          "indexed": false,
          "internalType": "uint256",
          "name": "_tokenId",
          "type": "uint256"
        }
      ],
      "name": "MetadataUpdate",
      "type": "event"
    },
    {
      "anonymous": false,
      "inputs": [
        {
          "indexed": true,
          "internalType": "address",
          "name": "from",
          "type": "address"
        },
        {
          "indexed": true,
          "internalType": "address",
          "name": "to",
          "type": "address"
        },
        {
          "indexed": true,
          "internalType": "uint256",
          "name": "tokenId",
          "type": "uint256"
        }
      ],
      "name": "Transfer",
      "type": "event"
    },
    {
      "inputs": [
        {
          "internalType": "address",
          "name": "to",
          "type": "address"
        },
        {
          "internalType": "uint256",
          "name": "tokenId",
          "type": "uint256"
        }
      ],
      "name": "approve",
      "outputs": [],
      "stateMutability": "nonpayable",
      "type": "function"
    },
    {
      "inputs": [
        {
          "internalType": "address",
          "name": "owner",
          "type": "address"
        }
      ],
      "name": "balanceOf",
      "outputs": [
        {
          "internalType": "uint256",
          "name": "",
          "type": "uint256"
        }
      ],
      "stateMutability": "view",
      "type": "function"
    },
    {
      "inputs": [
        {
          "internalType": "address",
          "name": "player",
          "type": "address"
        },
        {
          "internalType": "string",
          "name": "tokenURI",
          "type": "string"
        }
      ],
      "name": "createItem",
      "outputs": [
        {
          "internalType": "uint256",
          "name": "",
          "type": "uint256"
        }
      ],
      "stateMutability": "nonpayable",
      "type": "function"
    },
    {
      "inputs": [
        {
          "internalType": "uint256",
          "name": "tokenId",
          "type": "uint256"
        }
      ],
      "name": "getApproved",
      "outputs": [
        {
          "internalType": "address",
          "name": "",
          "type": "address"
        }
      ],
      "stateMutability": "view",
      "type": "function"
    },
    {
      "inputs": [
        {
          "internalType": "address",
          "name": "owner",
          "type": "address"
        },
        {
          "internalType": "address",
          "name": "operator",
          "type": "address"
        }
      ],
      "name": "isApprovedForAll",
      "outputs": [
        {
          "internalType": "bool",
          "name": "",
          "type": "bool"
        }
      ],
      "stateMutability": "view",
      "type": "function"
    },
    {
      "inputs": [],
      "name": "name",
      "outputs": [
        {
          "internalType": "string",
          "name": "",
          "type": "string"
        }
      ],
      "stateMutability": "view",
      "type": "function"
    },
    {
      "inputs": [
        {
          "internalType": "uint256",
          "name": "tokenId",
          "type": "uint256"
        }
      ],
      "name": "ownerOf",
      "outputs": [
        {
          "internalType": "address",
          "name": "",
          "type": "address"
        }
      ],
      "stateMutability": "view",
      "type": "function"
    },
    {
      "inputs": [
        {
          "internalType": "address",
          "name": "from",
          "type": "address"
        },
        {
          "internalType": "address",
          "name": "to",
          "type": "address"
        },
        {
          "internalType": "uint256",
          "name": "tokenId",
          "type": "uint256"
        }
      ],
      "name": "safeTransferFrom",
      "outputs": [],
      "stateMutability": "nonpayable",
      "type": "function"
    },
    {
      "inputs": [
        {
          "internalType": "address",
          "name": "from",
          "type": "address"
        },
        {
          "internalType": "address",
          "name": "to",
          "type": "address"
        },
        {
          "internalType": "uint256",
          "name": "tokenId",
          "type": "uint256"
        },
        {
          "internalType": "bytes",
          "name": "data",
          "type": "bytes"
        }
      ],
      "name": "safeTransferFrom",
      "outputs": [],
      "stateMutability": "nonpayable",
      "type": "function"
    },
    {
      "inputs": [
        {
          "internalType": "address",
          "name": "operator",
          "type": "address"
        },
        {
          "internalType": "bool",
          "name": "approved",
          "type": "bool"
        }
      ],
      "name": "setApprovalForAll",
      "outputs": [],
      "stateMutability": "nonpayable",
      "type": "function"
    },
    {
      "inputs": [
        {
          "internalType": "bytes4",
          "name": "interfaceId",
          "type": "bytes4"
        }
      ],
      "name": "supportsInterface",
      "outputs": [
        {
          "internalType": "bool",
          "name": "",
          "type": "bool"
        }
      ],
      "stateMutability": "view",
      "type": "function"
    },
    {
      "inputs": [],
      "name": "symbol",
      "outputs": [
        {
          "internalType": "string",
          "name": "",
          "type": "string"
        }
      ],
      "stateMutability": "view",
      "type": "function"
    },
    {
      "inputs": [
        {
          "internalType": "uint256",
          "name": "tokenId",
          "type": "uint256"
        }
      ],
      "name": "tokenURI",
      "outputs": [
        {
          "internalType": "string",
          "name": "",
          "type": "string"
        }
      ],
      "stateMutability": "view",
      "type": "function"
    },
    {
      "inputs": [
        {
          "internalType": "address",
          "name": "from",
          "type": "address"
        },
        {
          "internalType": "address",
          "name": "to",
          "type": "address"
        },
        {
          "internalType": "uint256",
          "name": "tokenId",
          "type": "uint256"
        }
      ],
      "name": "transferFrom",
      "outputs": [],
      "stateMutability": "nonpayable",
      "type": "function"
    }
  ],
  "bytecode": "0x60806040523480156200001157600080fd5b506040518060400160405280600981526020017f566964656f4c69737400000000000000000000000000000000000000000000008152506040518060400160405280600381526020017f56444c000000000000000000000000000000000000000000000000000000000081525081600090816200008f919062000324565b508060019081620000a1919062000324565b5050506200040b565b600081519050919050565b7f4e487b7100000000000000000000000000000000000000000000000000000000600052604160045260246000fd5b7f4e487b7100000000000000000000000000000000000000000000000000000000600052602260045260246000fd5b600060028204905060018216806200012c57607f821691505b602082108103620001425762000141620000e4565b5b50919050565b60008190508160005260206000209050919050565b60006020601f8301049050919050565b600082821b905092915050565b600060088302620001ac7fffffffffffffffffffffffffffffffffffffffffffffffffffffffffffffffff826200016d565b620001b886836200016d565b95508019841693508086168417925050509392505050565b6000819050919050565b6000819050919050565b600062000205620001ff620001f984620001d0565b620001da565b620001d0565b9050919050565b6000819050919050565b6200022183620001e4565b6200023962000230826200020c565b8484546200017a565b825550505050565b600090565b6200025062000241565b6200025d81848462000216565b505050565b5b8181101562000285576200027960008262000246565b60018101905062000263565b5050565b601f821115620002d4576200029e8162000148565b620002a9846200015d565b81016020851015620002b9578190505b620002d1620002c8856200015d565b83018262000262565b50505b505050565b600082821c905092915050565b6000620002f960001984600802620002d9565b1980831691505092915050565b6000620003148383620002e6565b9150826002028217905092915050565b6200032f82620000aa565b67ffffffffffffffff8111156200034b576200034a620000b5565b5b62000357825462000113565b6200036482828562000289565b600060209050601f8311600181146200039c576000841562000387578287015190505b62000393858262000306565b86555062000403565b601f198416620003ac8662000148565b60005b82811015620003d657848901518255600182019150602085019450602081019050620003af565b86831015620003f65784890151620003f2601f891682620002e6565b8355505b6001600288020188555050505b505050505050565b612b04806200041b6000396000f3fe608060405234801561001057600080fd5b50600436106100ea5760003560e01c80636352211e1161008c578063a22cb46511610066578063a22cb4651461026f578063b88d4fde1461028b578063c87b56dd146102a7578063e985e9c5146102d7576100ea565b80636352211e146101f157806370a082311461022157806395d89b4114610251576100ea565b8063095ea7b3116100c8578063095ea7b31461016d57806323b872dd1461018957806326fb76c2146101a557806342842e0e146101d5576100ea565b806301ffc9a7146100ef57806306fdde031461011f578063081812fc1461013d575b600080fd5b610109600480360381019061010491906119f3565b610307565b6040516101169190611a3b565b60405180910390f35b610127610319565b6040516101349190611ae6565b60405180910390f35b61015760048036038101906101529190611b3e565b6103ab565b6040516101649190611bac565b60405180910390f35b61018760048036038101906101829190611bf3565b6103f1565b005b6101a3600480360381019061019e9190611c33565b610508565b005b6101bf60048036038101906101ba9190611dbb565b610568565b6040516101cc9190611e26565b60405180910390f35b6101ef60048036038101906101ea9190611c33565b6105a0565b005b61020b60048036038101906102069190611b3e565b6105c0565b6040516102189190611bac565b60405180910390f35b61023b60048036038101906102369190611e41565b610646565b6040516102489190611e26565b60405180910390f35b6102596106fd565b6040516102669190611ae6565b60405180910390f35b61028960048036038101906102849190611e9a565b61078f565b005b6102a560048036038101906102a09190611f7b565b6107a5565b005b6102c160048036038101906102bc9190611b3e565b610807565b6040516102ce9190611ae6565b60405180910390f35b6102f160048036038101906102ec9190611ffe565b610819565b6040516102fe9190611a3b565b60405180910390f35b6000610312826108ad565b9050919050565b6060600080546103289061206d565b80601f01602080910402602001604051908101604052809291908181526020018280546103549061206d565b80156103a15780601f10610376576101008083540402835291602001916103a1565b820191906000526020600020905b81548152906001019060200180831161038457829003601f168201915b5050505050905090565b60006103b68261090e565b6004600083815260200190815260200160002060009054906101000a900473ffffffffffffffffffffffffffffffffffffffff169050919050565b60006103fc826105c0565b90508073ffffffffffffffffffffffffffffffffffffffff168373ffffffffffffffffffffffffffffffffffffffff160361046c576040517f08c379a000000000000000000000000000000000000000000000000000000000815260040161046390612110565b60405180910390fd5b8073ffffffffffffffffffffffffffffffffffffffff1661048b610959565b73ffffffffffffffffffffffffffffffffffffffff1614806104ba57506104b9816104b4610959565b610819565b5b6104f9576040517f08c379a00000000000000000000000000000000000000000000000000000000081526004016104f0906121a2565b60405180910390fd5b6105038383610961565b505050565b610519610513610959565b82610a1a565b610558576040517f08c379a000000000000000000000000000000000000000000000000000000000815260040161054f90612234565b60405180910390fd5b610563838383610aaf565b505050565b60006105746007610da8565b60006105806007610dbe565b905061058c8482610dcc565b6105968184610fe9565b8091505092915050565b6105bb838383604051806020016040528060008152506107a5565b505050565b6000806105cc8361108d565b9050600073ffffffffffffffffffffffffffffffffffffffff168173ffffffffffffffffffffffffffffffffffffffff160361063d576040517f08c379a0000000000000000000000000000000000000000000000000000000008152600401610634906122a0565b60405180910390fd5b80915050919050565b60008073ffffffffffffffffffffffffffffffffffffffff168273ffffffffffffffffffffffffffffffffffffffff16036106b6576040517f08c379a00000000000000000000000000000000000000000000000000000000081526004016106ad90612332565b60405180910390fd5b600360008373ffffffffffffffffffffffffffffffffffffffff1673ffffffffffffffffffffffffffffffffffffffff168152602001908152602001600020549050919050565b60606001805461070c9061206d565b80601f01602080910402602001604051908101604052809291908181526020018280546107389061206d565b80156107855780601f1061075a57610100808354040283529160200191610785565b820191906000526020600020905b81548152906001019060200180831161076857829003601f168201915b5050505050905090565b6107a161079a610959565b83836110ca565b5050565b6107b66107b0610959565b83610a1a565b6107f5576040517f08c379a00000000000000000000000000000000000000000000000000000000081526004016107ec90612234565b60405180910390fd5b61080184848484611236565b50505050565b606061081282611292565b9050919050565b6000600560008473ffffffffffffffffffffffffffffffffffffffff1673ffffffffffffffffffffffffffffffffffffffff16815260200190815260200160002060008373ffffffffffffffffffffffffffffffffffffffff1673ffffffffffffffffffffffffffffffffffffffff16815260200190815260200160002060009054906101000a900460ff16905092915050565b6000634906490660e01b7bffffffffffffffffffffffffffffffffffffffffffffffffffffffff1916827bffffffffffffffffffffffffffffffffffffffffffffffffffffffff191614806109075750610906826113a4565b5b9050919050565b61091781611486565b610956576040517f08c379a000000000000000000000000000000000000000000000000000000000815260040161094d906122a0565b60405180910390fd5b50565b600033905090565b816004600083815260200190815260200160002060006101000a81548173ffffffffffffffffffffffffffffffffffffffff021916908373ffffffffffffffffffffffffffffffffffffffff160217905550808273ffffffffffffffffffffffffffffffffffffffff166109d4836105c0565b73ffffffffffffffffffffffffffffffffffffffff167f8c5be1e5ebec7d5bd14f71427d1e84f3dd0314c0f7b2291e5b200ac8c7c3b92560405160405180910390a45050565b600080610a26836105c0565b90508073ffffffffffffffffffffffffffffffffffffffff168473ffffffffffffffffffffffffffffffffffffffff161480610a685750610a678185610819565b5b80610aa657508373ffffffffffffffffffffffffffffffffffffffff16610a8e846103ab565b73ffffffffffffffffffffffffffffffffffffffff16145b91505092915050565b8273ffffffffffffffffffffffffffffffffffffffff16610acf826105c0565b73ffffffffffffffffffffffffffffffffffffffff1614610b25576040517f08c379a0000000000000000000000000000000000000000000000000000000008152600401610b1c906123c4565b60405180910390fd5b600073ffffffffffffffffffffffffffffffffffffffff168273ffffffffffffffffffffffffffffffffffffffff1603610b94576040517f08c379a0000000000000000000000000000000000000000000000000000000008152600401610b8b90612456565b60405180910390fd5b610ba183838360016114c7565b8273ffffffffffffffffffffffffffffffffffffffff16610bc1826105c0565b73ffffffffffffffffffffffffffffffffffffffff1614610c17576040517f08c379a0000000000000000000000000000000000000000000000000000000008152600401610c0e906123c4565b60405180910390fd5b6004600082815260200190815260200160002060006101000a81549073ffffffffffffffffffffffffffffffffffffffff02191690556001600360008573ffffffffffffffffffffffffffffffffffffffff1673ffffffffffffffffffffffffffffffffffffffff168152602001908152602001600020600082825403925050819055506001600360008473ffffffffffffffffffffffffffffffffffffffff1673ffffffffffffffffffffffffffffffffffffffff16815260200190815260200160002060008282540192505081905550816002600083815260200190815260200160002060006101000a81548173ffffffffffffffffffffffffffffffffffffffff021916908373ffffffffffffffffffffffffffffffffffffffff160217905550808273ffffffffffffffffffffffffffffffffffffffff168473ffffffffffffffffffffffffffffffffffffffff167fddf252ad1be2c89b69c2b068fc378daa952ba7f163c4a11628f55a4df523b3ef60405160405180910390a4610da383838360016114cd565b505050565b6001816000016000828254019250508190555050565b600081600001549050919050565b600073ffffffffffffffffffffffffffffffffffffffff168273ffffffffffffffffffffffffffffffffffffffff1603610e3b576040517f08c379a0000000000000000000000000000000000000000000000000000000008152600401610e32906124c2565b60405180910390fd5b610e4481611486565b15610e84576040517f08c379a0000000000000000000000000000000000000000000000000000000008152600401610e7b9061252e565b60405180910390fd5b610e926000838360016114c7565b610e9b81611486565b15610edb576040517f08c379a0000000000000000000000000000000000000000000000000000000008152600401610ed29061252e565b60405180910390fd5b6001600360008473ffffffffffffffffffffffffffffffffffffffff1673ffffffffffffffffffffffffffffffffffffffff16815260200190815260200160002060008282540192505081905550816002600083815260200190815260200160002060006101000a81548173ffffffffffffffffffffffffffffffffffffffff021916908373ffffffffffffffffffffffffffffffffffffffff160217905550808273ffffffffffffffffffffffffffffffffffffffff16600073ffffffffffffffffffffffffffffffffffffffff167fddf252ad1be2c89b69c2b068fc378daa952ba7f163c4a11628f55a4df523b3ef60405160405180910390a4610fe56000838360016114cd565b5050565b610ff282611486565b611031576040517f08c379a0000000000000000000000000000000000000000000000000000000008152600401611028906125c0565b60405180910390fd5b80600660008481526020019081526020016000209081611051919061278c565b507ff8e1a15aba9398e019f0b49df1a4fde98ee17ae345cb5f6b5e2c27f5033e8ce7826040516110819190611e26565b60405180910390a15050565b60006002600083815260200190815260200160002060009054906101000a900473ffffffffffffffffffffffffffffffffffffffff169050919050565b8173ffffffffffffffffffffffffffffffffffffffff168373ffffffffffffffffffffffffffffffffffffffff1603611138576040517f08c379a000000000000000000000000000000000000000000000000000000000815260040161112f906128aa565b60405180910390fd5b80600560008573ffffffffffffffffffffffffffffffffffffffff1673ffffffffffffffffffffffffffffffffffffffff16815260200190815260200160002060008473ffffffffffffffffffffffffffffffffffffffff1673ffffffffffffffffffffffffffffffffffffffff16815260200190815260200160002060006101000a81548160ff0219169083151502179055508173ffffffffffffffffffffffffffffffffffffffff168373ffffffffffffffffffffffffffffffffffffffff167f17307eab39ab6107e8899845ad3d59bd9653f200f220920489ca2b5937696c31836040516112299190611a3b565b60405180910390a3505050565b611241848484610aaf565b61124d848484846114d3565b61128c576040517f08c379a00000000000000000000000000000000000000000000000000000000081526004016112839061293c565b60405180910390fd5b50505050565b606061129d8261090e565b60006006600084815260200190815260200160002080546112bd9061206d565b80601f01602080910402602001604051908101604052809291908181526020018280546112e99061206d565b80156113365780601f1061130b57610100808354040283529160200191611336565b820191906000526020600020905b81548152906001019060200180831161131957829003601f168201915b50505050509050600061134761165a565b9050600081510361135c57819250505061139f565b600082511115611391578082604051602001611379929190612998565b6040516020818303038152906040529250505061139f565b61139a84611671565b925050505b919050565b60007f80ac58cd000000000000000000000000000000000000000000000000000000007bffffffffffffffffffffffffffffffffffffffffffffffffffffffff1916827bffffffffffffffffffffffffffffffffffffffffffffffffffffffff1916148061146f57507f5b5e139f000000000000000000000000000000000000000000000000000000007bffffffffffffffffffffffffffffffffffffffffffffffffffffffff1916827bffffffffffffffffffffffffffffffffffffffffffffffffffffffff1916145b8061147f575061147e826116d9565b5b9050919050565b60008073ffffffffffffffffffffffffffffffffffffffff166114a88361108d565b73ffffffffffffffffffffffffffffffffffffffff1614159050919050565b50505050565b50505050565b60006114f48473ffffffffffffffffffffffffffffffffffffffff16611743565b1561164d578373ffffffffffffffffffffffffffffffffffffffff1663150b7a0261151d610959565b8786866040518563ffffffff1660e01b815260040161153f9493929190612a11565b6020604051808303816000875af192505050801561157b57506040513d601f19601f820116820180604052508101906115789190612a72565b60015b6115fd573d80600081146115ab576040519150601f19603f3d011682016040523d82523d6000602084013e6115b0565b606091505b5060008151036115f5576040517f08c379a00000000000000000000000000000000000000000000000000000000081526004016115ec9061293c565b60405180910390fd5b805181602001fd5b63150b7a0260e01b7bffffffffffffffffffffffffffffffffffffffffffffffffffffffff1916817bffffffffffffffffffffffffffffffffffffffffffffffffffffffff191614915050611652565b600190505b949350505050565b606060405180602001604052806000815250905090565b606061167c8261090e565b600061168661165a565b905060008151116116a657604051806020016040528060008152506116d1565b806116b084611766565b6040516020016116c1929190612998565b6040516020818303038152906040525b915050919050565b60007f01ffc9a7000000000000000000000000000000000000000000000000000000007bffffffffffffffffffffffffffffffffffffffffffffffffffffffff1916827bffffffffffffffffffffffffffffffffffffffffffffffffffffffff1916149050919050565b6000808273ffffffffffffffffffffffffffffffffffffffff163b119050919050565b60606000600161177584611834565b01905060008167ffffffffffffffff81111561179457611793611c90565b5b6040519080825280601f01601f1916602001820160405280156117c65781602001600182028036833780820191505090505b509050600082602001820190505b600115611829578080600190039150507f3031323334353637383961626364656600000000000000000000000000000000600a86061a8153600a858161181d5761181c612a9f565b5b049450600085036117d4575b819350505050919050565b600080600090507a184f03e93ff9f4daa797ed6e38ed64bf6a1f0100000000000000008310611892577a184f03e93ff9f4daa797ed6e38ed64bf6a1f010000000000000000838161188857611887612a9f565b5b0492506040810190505b6d04ee2d6d415b85acef810000000083106118cf576d04ee2d6d415b85acef810000000083816118c5576118c4612a9f565b5b0492506020810190505b662386f26fc1000083106118fe57662386f26fc1000083816118f4576118f3612a9f565b5b0492506010810190505b6305f5e1008310611927576305f5e100838161191d5761191c612a9f565b5b0492506008810190505b612710831061194c57612710838161194257611941612a9f565b5b0492506004810190505b6064831061196f576064838161196557611964612a9f565b5b0492506002810190505b600a831061197e576001810190505b80915050919050565b6000604051905090565b600080fd5b600080fd5b60007fffffffff0000000000000000000000000000000000000000000000000000000082169050919050565b6119d08161199b565b81146119db57600080fd5b50565b6000813590506119ed816119c7565b92915050565b600060208284031215611a0957611a08611991565b5b6000611a17848285016119de565b91505092915050565b60008115159050919050565b611a3581611a20565b82525050565b6000602082019050611a506000830184611a2c565b92915050565b600081519050919050565b600082825260208201905092915050565b60005b83811015611a90578082015181840152602081019050611a75565b60008484015250505050565b6000601f19601f8301169050919050565b6000611ab882611a56565b611ac28185611a61565b9350611ad2818560208601611a72565b611adb81611a9c565b840191505092915050565b60006020820190508181036000830152611b008184611aad565b905092915050565b6000819050919050565b611b1b81611b08565b8114611b2657600080fd5b50565b600081359050611b3881611b12565b92915050565b600060208284031215611b5457611b53611991565b5b6000611b6284828501611b29565b91505092915050565b600073ffffffffffffffffffffffffffffffffffffffff82169050919050565b6000611b9682611b6b565b9050919050565b611ba681611b8b565b82525050565b6000602082019050611bc16000830184611b9d565b92915050565b611bd081611b8b565b8114611bdb57600080fd5b50565b600081359050611bed81611bc7565b92915050565b60008060408385031215611c0a57611c09611991565b5b6000611c1885828601611bde565b9250506020611c2985828601611b29565b9150509250929050565b600080600060608486031215611c4c57611c4b611991565b5b6000611c5a86828701611bde565b9350506020611c6b86828701611bde565b9250506040611c7c86828701611b29565b9150509250925092565b600080fd5b600080fd5b7f4e487b7100000000000000000000000000000000000000000000000000000000600052604160045260246000fd5b611cc882611a9c565b810181811067ffffffffffffffff82111715611ce757611ce6611c90565b5b80604052505050565b6000611cfa611987565b9050611d068282611cbf565b919050565b600067ffffffffffffffff821115611d2657611d25611c90565b5b611d2f82611a9c565b9050602081019050919050565b82818337600083830152505050565b6000611d5e611d5984611d0b565b611cf0565b905082815260208101848484011115611d7a57611d79611c8b565b5b611d85848285611d3c565b509392505050565b600082601f830112611da257611da1611c86565b5b8135611db2848260208601611d4b565b91505092915050565b60008060408385031215611dd257611dd1611991565b5b6000611de085828601611bde565b925050602083013567ffffffffffffffff811115611e0157611e00611996565b5b611e0d85828601611d8d565b9150509250929050565b611e2081611b08565b82525050565b6000602082019050611e3b6000830184611e17565b92915050565b600060208284031215611e5757611e56611991565b5b6000611e6584828501611bde565b91505092915050565b611e7781611a20565b8114611e8257600080fd5b50565b600081359050611e9481611e6e565b92915050565b60008060408385031215611eb157611eb0611991565b5b6000611ebf85828601611bde565b9250506020611ed085828601611e85565b9150509250929050565b600067ffffffffffffffff821115611ef557611ef4611c90565b5b611efe82611a9c565b9050602081019050919050565b6000611f1e611f1984611eda565b611cf0565b905082815260208101848484011115611f3a57611f39611c8b565b5b611f45848285611d3c565b509392505050565b600082601f830112611f6257611f61611c86565b5b8135611f72848260208601611f0b565b91505092915050565b60008060008060808587031215611f9557611f94611991565b5b6000611fa387828801611bde565b9450506020611fb487828801611bde565b9350506040611fc587828801611b29565b925050606085013567ffffffffffffffff811115611fe657611fe5611996565b5b611ff287828801611f4d565b91505092959194509250565b6000806040838503121561201557612014611991565b5b600061202385828601611bde565b925050602061203485828601611bde565b9150509250929050565b7f4e487b7100000000000000000000000000000000000000000000000000000000600052602260045260246000fd5b6000600282049050600182168061208557607f821691505b6020821081036120985761209761203e565b5b50919050565b7f4552433732313a20617070726f76616c20746f2063757272656e74206f776e6560008201527f7200000000000000000000000000000000000000000000000000000000000000602082015250565b60006120fa602183611a61565b91506121058261209e565b604082019050919050565b60006020820190508181036000830152612129816120ed565b9050919050565b7f4552433732313a20617070726f76652063616c6c6572206973206e6f7420746f60008201527f6b656e206f776e6572206f7220617070726f76656420666f7220616c6c000000602082015250565b600061218c603d83611a61565b915061219782612130565b604082019050919050565b600060208201905081810360008301526121bb8161217f565b9050919050565b7f4552433732313a2063616c6c6572206973206e6f7420746f6b656e206f776e6560008201527f72206f7220617070726f76656400000000000000000000000000000000000000602082015250565b600061221e602d83611a61565b9150612229826121c2565b604082019050919050565b6000602082019050818103600083015261224d81612211565b9050919050565b7f4552433732313a20696e76616c696420746f6b656e2049440000000000000000600082015250565b600061228a601883611a61565b915061229582612254565b602082019050919050565b600060208201905081810360008301526122b98161227d565b9050919050565b7f4552433732313a2061646472657373207a65726f206973206e6f74206120766160008201527f6c6964206f776e65720000000000000000000000000000000000000000000000602082015250565b600061231c602983611a61565b9150612327826122c0565b604082019050919050565b6000602082019050818103600083015261234b8161230f565b9050919050565b7f4552433732313a207472616e736665722066726f6d20696e636f72726563742060008201527f6f776e6572000000000000000000000000000000000000000000000000000000602082015250565b60006123ae602583611a61565b91506123b982612352565b604082019050919050565b600060208201905081810360008301526123dd816123a1565b9050919050565b7f4552433732313a207472616e7366657220746f20746865207a65726f2061646460008201527f7265737300000000000000000000000000000000000000000000000000000000602082015250565b6000612440602483611a61565b915061244b826123e4565b604082019050919050565b6000602082019050818103600083015261246f81612433565b9050919050565b7f4552433732313a206d696e7420746f20746865207a65726f2061646472657373600082015250565b60006124ac602083611a61565b91506124b782612476565b602082019050919050565b600060208201905081810360008301526124db8161249f565b9050919050565b7f4552433732313a20746f6b656e20616c7265616479206d696e74656400000000600082015250565b6000612518601c83611a61565b9150612523826124e2565b602082019050919050565b600060208201905081810360008301526125478161250b565b9050919050565b7f45524337323155524953746f726167653a2055524920736574206f66206e6f6e60008201527f6578697374656e7420746f6b656e000000000000000000000000000000000000602082015250565b60006125aa602e83611a61565b91506125b58261254e565b604082019050919050565b600060208201905081810360008301526125d98161259d565b9050919050565b60008190508160005260206000209050919050565b60006020601f8301049050919050565b600082821b905092915050565b6000600883026126427fffffffffffffffffffffffffffffffffffffffffffffffffffffffffffffffff82612605565b61264c8683612605565b95508019841693508086168417925050509392505050565b6000819050919050565b600061268961268461267f84611b08565b612664565b611b08565b9050919050565b6000819050919050565b6126a38361266e565b6126b76126af82612690565b848454612612565b825550505050565b600090565b6126cc6126bf565b6126d781848461269a565b505050565b5b818110156126fb576126f06000826126c4565b6001810190506126dd565b5050565b601f82111561274057612711816125e0565b61271a846125f5565b81016020851015612729578190505b61273d612735856125f5565b8301826126dc565b50505b505050565b600082821c905092915050565b600061276360001984600802612745565b1980831691505092915050565b600061277c8383612752565b9150826002028217905092915050565b61279582611a56565b67ffffffffffffffff8111156127ae576127ad611c90565b5b6127b8825461206d565b6127c38282856126ff565b600060209050601f8311600181146127f657600084156127e4578287015190505b6127ee8582612770565b865550612856565b601f198416612804866125e0565b60005b8281101561282c57848901518255600182019150602085019450602081019050612807565b868310156128495784890151612845601f891682612752565b8355505b6001600288020188555050505b505050505050565b7f4552433732313a20617070726f766520746f2063616c6c657200000000000000600082015250565b6000612894601983611a61565b915061289f8261285e565b602082019050919050565b600060208201905081810360008301526128c381612887565b9050919050565b7f4552433732313a207472616e7366657220746f206e6f6e20455243373231526560008201527f63656976657220696d706c656d656e7465720000000000000000000000000000602082015250565b6000612926603283611a61565b9150612931826128ca565b604082019050919050565b6000602082019050818103600083015261295581612919565b9050919050565b600081905092915050565b600061297282611a56565b61297c818561295c565b935061298c818560208601611a72565b80840191505092915050565b60006129a48285612967565b91506129b08284612967565b91508190509392505050565b600081519050919050565b600082825260208201905092915050565b60006129e3826129bc565b6129ed81856129c7565b93506129fd818560208601611a72565b612a0681611a9c565b840191505092915050565b6000608082019050612a266000830187611b9d565b612a336020830186611b9d565b612a406040830185611e17565b8181036060830152612a5281846129d8565b905095945050505050565b600081519050612a6c816119c7565b92915050565b600060208284031215612a8857612a87611991565b5b6000612a9684828501612a5d565b91505092915050565b7f4e487b7100000000000000000000000000000000000000000000000000000000600052601260045260246000fdfea2646970667358221220b71e3aed7daed5570a062c70d6a3beea23570e371f6c1be3767bfc0d69d63bb764736f6c63430008110033",
  "linkReferences": {},
  "deployedLinkReferences": {}
}